:10000000022A918F448D45D291D290121FF8C2914D
:10001000121FF8C290121FF8E54425E04545FF0283
:020020001B784B
:100023000215D2E4FB021000021A2C8F828E83E0A9
:10003300788AF6E4F6787DF68D828C83F07F012250
:10004300020046C0E0C0F0C083C082C0D075D008B3
:1000530020D902A136E5D9543F7002A108146049A2
:1000630024E1700281AC14603024FE601D146043EF
:1000730024F4604F242E6002A13420DE02A13478E0
:1000830097744026F6E6F5E4A134C21875D700E567
:10009300D654FC4402F5D6A13475D300E5D254FC02
:1000A3004402F5D2121EFCA13420DE02A134121C3C
:1000B3000AA13475DF0063DE40E5DE54FC4402F53B
:1000C300DEA13485DB24E524640860028187900087
:1000D30006E078A0F6A3E0600276FF7524009000A6
:1000E30001E078A1F6900000E0546024E070026122
:1000F300E824E07002811924406002813F78A1E680
:10010300B40B00400261E690011025E07361CB61FE
:100113001D61E6615361E641F4212661E641FD611B
:10012300138142900003E024FE602014602B24F42A
:10013300700241CD24ED700241DB2421600241F2C3
:100143007579FF757A2E757B8F41AC7579FF757A5A
:100153002E757BA175244A8142900002E01460242D
:1001630014602F14603A14700241B114700241BF3D
:1001730024056002813F7579FF757A2E757BEB75D7
:10018300240481427579FF757A2E757BEF752408F7
:1001930081427579FF757A2E757BF775242C814220
:1001A300903FFCE493C4540FFFC3940A5005EF241B
:1001B30030800A903FFCE493C4540F243790004CE2
:1001C300F0903FFCE493540FFFC3940A5005EF24CF
:1001D300308009903FFCE493540F243790004EF095
:1001E300903FFDE493C4540FFFC3940A5005EF24DA
:1001F30030800A903FFDE493C4540F24379000509D
:10020300F0903FFDE493540FFFC3940A5005EF248D
:10021300308009903FFDE493540F2437900052F04F
:10022300903FFEE493C4540FFFC3940A5005EF2498
:1002330030800A903FFEE493C4540F243790005457
:10024300F0903FFEE493540FFFC3940A5005EF244C
:10025300308009903FFEE493540F2437900056F00A
:10026300903FFFE493C4540FFFC3940A5005EF2457
:1002730030800A903FFFE493C4540F243790005812
:10028300F0903FFFE493540FFFC3940A5005EF240B
:10029300308009903FFFE493540F243790005AF0C5
:1002A300757901757A00757B4A75241281427579D7
:1002B300FF757A2F757B2375243081427579FF751D
:1002C3007A2F757B5375241E81427579FF757A2FBA
:1002D300757B717524288142900004E0B4020E7589
:1002E30079FF757A30757B4375243E8142813F8166
:1002F3003F900002E078A0F681427895E6900000F6
:10030300F078A0E6C3940150028142752401814232
:10031300900002E0FF7895F68142900000E0541FC0
:100323006402702A900004E024FE601B2481600DA7
:10033300147019E5D454BC4402F5D48142E5D25477
:10034300BC4402F5D2814253D4738142813F813F41
:10035300900000E0541FFD701D900003E0FE90002C
:1003630002E0FBEB64014E700B902EA89330E50284
:100373008142813F813FED6402704B900003E0FEB8
:10038300900002E0FDED4E703B900005E0FE900012
:1003930004E0FDEDFFEE702AEF24FE60112481607E
:1003A3001714701EE5D454BF4403F5D48142E5D439
:1003B300547F440CF5D48142E5D254BF4403F5D2B3
:1003C300807D807880768074757900757A00757B7E
:1003D3009E78A0E6FFC39402400575240280608FD7
:1003E30024805C8057900000E0541F6401705078B3
:1003F300A1E624E0604924FE6011047017757900BA
:10040300757A00757BA27524078034900002E0138F
:1004130092B4802B8026900000E0541F702178A1B5
:10042300E624E07015900004E0B407137579FF75B6
:100433007A2F757B997524AA800580007524FFE5C2
:10044300246044F4604178A0E6D395244002A624B6
:1004530078A0E6FFC3944040047F4080008F247E51
:100463000078007C007D01AB79AA7AA97B12239BDB
:10047300C378A0E69524F6E524257BF57BE4357A5D
:10048300F57A80037524FFE524B4FF0978A176FF8C
:1004930075DCCFA134E524D3944050058524DD8059
:1004A3000375DD0075DCC0A13478A1E624FB60424E
:1004B30024E56004241A704578A0E6FFC394404005
:1004C300047F4080008F247E0078007C007D01AB98
:1004D30079AA7AA97B12239BC378A0E69524F6E533
:1004E30024257BF57BE4357AF57A8524DD63DC40CE
:1004F300803FE5E3548078A046F5E3800375DD0093
:1005030075DC02802C85DB2478A1E66420701F3023
:10051300DE1CAFDBFE087C00FD7B017A0079001254
:10052300239B7B007A0079A212179775DD0063DCA9
:1005330080C2D930D81475DC0275D21275D4127505
:10054300E300C2DAC2D9C218C2D830DA11C2DAE57E
:10055300DA30E20DE5A220E7FB438702800375D87A
:10056300FFD0D0D082D083D0F0D0E0328E4C8F4DEC
:100573008C4E8D4FE4787CF67893F6755001854E5A
:1005830051854F527403254FF54FE4354EF54EE434
:1005930008F6054DE54D7002054CF582854C8385C3
:1005A3004D82854C83E0FF7885F67402254DF54D29
:1005B300E4354CF54CEF7002C1FF054DE54DAE4CF3
:1005C3007002054C14F5828E83E0787FF6E620E115
:1005D30002C17930E03A7890E6FE08E6FF788EA60D
:1005E3000608A607787FE6FFE4FD120E377893EF3F
:1005F300F6BF0213788E08E6161886067001164EAB
:1006030060057894E660DD7893E664016002C1FFDB
:100613007885E6167002C1FFE67008787FE630E061
:1006230002760E7890E6FE08E6FF788EA60608A608
:1006330007787FE6FF7D18120E377893EFF6BF0237
:1006430013788E08E6161886067001164E60057834
:1006530094E660DD7893E664016002C1FFAE4EAFBD
:100663004F7D18122C517404254FF54FE4354EF588
:100673004E787C06809A7885E61660517F18AC4CDC
:10068300AD4D122C357404254DF54DE4354CF54C28
:100693007890E6FE08E6FF788EA60608A607787F20
:1006A300E6FF7D18120E377893EFF6BF0213788EAC
:1006B30008E6161886067001164E60057894E66003
:1006C300DD7893E664017034787C0680A97890E63F
:1006D300FE08E6FF788EA60608A607E4FD7F0E1245
:1006E3000E377893EFF6BF0213788E08E616188656
:1006F300067001164E60057894E660DF787CE6AB01
:1007030050AA51A952122407AB50AA51A9529000E2
:1007130001E41224197893E6900002122419AD4FD4
:10072300AE05C3EE99FF228E488F498C4A8D4B0547
:100733004BE54BAE4A7002054A14F5828E83E4F012
:1007430078AB76010876010549E549AE48700205A4
:100753004814F5828E83E078AAF678AAE61670022A
:10076300E1EC0549E549AE487002054814F5828E6F
:1007730083E018F6E6FD543F78ADF67002764078D4
:10078300ADE62407FFE433FEEF7803CEC313CE13A5
:10079300D8F978ADF6EDD29578A9E6FFAA48A9492C
:1007A3007B01C0038B50854A51854B52D0031219EC
:1007B3007A78AAE67002D29578A9E630E71678AB84
:1007C3000678ADE6FF254BF54BE4354AF54A18EFBD
:1007D30026F6808678ADE6FF2549F549E43548F5E8
:1007E30048EF0478AB26F6E15D78ACE6FF22300AE9
:0C07F3000443EB482253EBB7122284228F
:100800008E258F26AA0EA90F7530018A318932757F
:1008100033007534047BFF7A2C797E122B9FEF60B6
:1008200002818F74042526F526E43525F5257530DB
:1008300001F5318526327533007534057BFF7A2C3E
:100840007983122B9FEF700DC2AF75A15575A1AAC8
:1008500043B110818C753001852531852632753381
:10086000007534067BFF7A2C7989122B9FEF700478
:10087000D219818C7530018525318526327533007A
:100880007534037BFF7A2C7990122B9FEF60022145
:100890004B74032526F526E43525F525753001F53D
:1008A000318526327533007534087BFF7A2C7994B4
:1008B000122B9FEF700DC20112225D7BFF7A2C7903
:1008C0009D81897530018525318526327533007506
:1008D00034077BFF7A2C79D3122B9FEF700DD20156
:1008E00012225D7BFF7A2C79DB81897530018525A9
:1008F000318526327533007534017BFF7A2D790CF2
:10090000122B9FEF703D7B01200F067A03798080C8
:10091000047A0379C08B278A2889298B2A8A2B8914
:100920002C1217FB7BFF50067A2D793080047A2D2C
:1009300079388B338A3489357530FF75312D7532AE
:100940000E813C7BFF7A2D794181897530018525A7
:10095000318526327533007534047BFF7A2D795F3B
:10096000122B9FEF6002412274042526F526E43500
:1009700025F525753001F53185263275330075343E
:10098000087BFF7A2C7994122B9FEF700DC2011215
:1009900022487BFF7A2D7964818975300185253164
:1009A0008526327533007534077BFF7A2C79D31294
:1009B0002B9FEF700DD2011222487BFF7A2D799D7B
:1009C000818975300185253185263275330075346E
:1009D000017BFF7A2D790C122B9FEF703D7B01205C
:1009E0000F067A03798080047A0379C08B278A28DE
:1009F00089298B2A8A2B892C120FFC7BFF50067ABF
:100A00002D793080047A2D79388B338A3489357585
:100A100030FF75312D7532D1813C7BFF7A2D79F60F
:100A2000818975300185253185263275330075340D
:100A3000047BFF7A2E7915122B9FEF6002815D7B7C
:100A400001200F067A03798080047A0379C08B270E
:100A50008A2889298B2A8A2B892CA829AC28AD279A
:100A60007BFF7A2E791A1226DC74042529F529E4F5
:100A70003528F528903FFCE493C4540FFFC3940A33
:100A80005005EF2430800A903FFCE493C4540F24B7
:100A900037AB27AA28A929122407903FFCE49354D6
:100AA0000FFFC3940A5005EF24308009903FFCE407
:100AB00093540F2437AB27AA28A9299000011224A8
:100AC00019903FFDE493C4540FFFC3940A5005EFFF
:100AD0002430800A903FFDE493C4540F2437AB27A1
:100AE000AA28A929900002122419903FFDE49354EA
:100AF0000FFFC3940A5005EF24308009903FFDE4B6
:100B000093540F2437AB27AA28A929900003122455
:100B100019903FFEE493C4540FFFC3940A5005EFAD
:100B20002430800A903FFEE493C4540F2437AB274F
:100B3000AA28A929900004122419903FFEE4935496
:100B40000FFFC3940A5005EF24308009903FFEE464
:100B500093540F2437AB27AA28A929900005122403
:100B600019903FFFE493C4540FFFC3940A5005EF5C
:100B70002430800A903FFFE493C4540F2437AB27FE
:100B8000AA28A929900006122419903FFFE4935443
:100B90000FFFC3940A5005EF24308009903FFFE413
:100BA00093540F2437AB27AA28A9299000071224B1
:100BB0001974082529F529E43528F528A829FCAD5C
:100BC000277BFF7A2E791F1226DC740A2529F52946
:100BD000E43528F5281222B9E47B107A0EF9F812D0
:100BE000251B8F368E358D348C337530FF75312E45
:100BF00075322AAB27AA28A929122791EF2529F5B2
:100C000029EE3528F528A829FCAD277BFF7A2E7917
:100C1000321226DC740C2529F529E43528F5281232
:100C200022C2E4FB7A04F9F812251B8F368E358D2B
:100C3000348C337530FF75312E75323FAB27AA28BF
:100C4000A929122791EF2529F529EE3528F528C382
:100C5000E529952CF5D353D2FCB20F802F753001C6
:100C600085253185263275330075340D7BFF7A2E4C
:100C70007947122B9FEF700B121EB87BFF7A2E79EB
:100C80005580067BFF7A2E796B121F3C7F01227FF5
:100C90000022789DE6FF7897667002C1367E007468
:100CA000002FF9EE3401754201F54389447896E648
:100CB0002400F9EE3402754501F5468947789D74A4
:100CC0004026F6AB42AA43A9441223C1FFAB450517
:100CD00047E547AA467002054614F9EF122407AB10
:100CE000420544E544AA437002054314F91223C1A6
:100CF0001225E40D42000D6B010D7A020D89030DE2
:100D0000FB040D24050D33060E0A080D96090DA5EA
:100D10000A0DB0100DBF110DCE120DDD130DEC1D1F
:100D200000000E19AE43AF44AC46AD471200268F0B
:100D300041C12AAE43AF44AC46AD47121D208F419E
:100D4000C12AAB42AA43A9441223C1FFAB45E547E0
:100D50002401F9E43546FA121C9A8F41AB45AA46A4
:100D6000A947E5411224070541C12AAE43AF44AC6F
:100D700046AD471220C38F41C12AAE43AF44AC46B3
:100D8000AD47121FB68F41C12AAB45AA46A94712EB
:100D900021B08F41C12AAE43AF44AC46AD47120FDC
:100DA000C48F41C12AAE46AF471221CA8F41807A13
:100DB000AE43AF44AC46AD47121AD68F41806BAEFE
:100DC00043AF44AC46AD4712002E8F41805CAE432A
:100DD000AF44AC46AD471220008F41804DAE43AFCB
:100DE00044AC46AD4712216A8F41803EAE43AF44CA
:100DF000AC46AD4712072A8F41802FAE43AF44ACBB
:100E000046AD47121E708F418020AE43AF44AC46C2
:100E1000AD471221188F418011AB45AA46A94790D2
:100E2000FFFF74FF122419754101E541047899F61A
:100E30007896744026F6228F538D54D295E55354FC
:100E40000FFFA2D0E433FD75FA68C43354E0448147
:100E5000FCEF25E04CF5F930FBFD75FA08439220D4
:100E6000C2967892E6FFEF6009C2970000D2971F02
:100E700080F4C297A295E433D297FCC297A295E47E
:100E800033D29725E04204C297A295E433F9D29772
:100E900025E025E04204EC64016002E15DE55330A9
:100EA000E168E4F555FDFE7F08C297A295E433F9A9
:100EB000D297E555C313F555E9C433333354804213
:100EC00055DFE6E555A2D0E4334205ED25E0FDE52A
:100ED0005460042EF8A6550EBE04CCEDA2D0920AA2
:100EE000C297A295E433F9D297A20AE4336930E0BD
:100EF000027C087892E6FFEF6009C2970000D29763
:100F00001F80F45392DFD296803F7892E6FFEF6025
:100F100009C2970000D2971F80F45392DFD296E463
:100F2000FD75FA68FEE5542EF8E6F5F9A2D0E43333
:100F30004205ED25E0FD30FBFD0EBE04E875FA0824
:100F4000EDA2D09295C297D297787EE6FF6057C205
:100F500095EF606BC2970000D2971F80F4EC64029B
:100F60006005EC640470417884E6600FE55330E17D
:100F70000A7F21C2970000D297DFF87892E6FFEF50
:100F80006009C2970000D2971F80F45392DFD29677
:100F90007884E66011E55320E10CC2957F21C29769
:100FA0000000D297DFF880177892E62421FFEF60E7
:100FB00009C2970000D2971F80F45392DFD296D2D5
:100FC00095AF04228C488D49AB07AA068B828A8391
:100FD000A3E0FE8B828A83E0FDEE78A9F6ED08F6A9
:100FE00078A908E616187001161486064E70F18569
:0F0FF0004982854883F07F01220222A5A21422A4
:101000008E488F498C4A8D4BAA06A907754C018AD8
:101010004D894EE4787CF67893F6754F01854A50F9
:10102000854B517402254BF54BE4354AF54AE408EB
:10103000F678A9F608F60549E5497002054805491C
:10104000E549AE487002054814F5828E83E0788544
:10105000F67885E6700261640549E549AE4870029C
:10106000054814F5828E83E0787FF6E6FF20E102E2
:10107000419A78A9E6607D7890E6FC08E6FD788ED6
:10108000A60408A605EF541164017026787FE6FFD8
:101090007D18120E377893EFF66402703A788E0856
:1010A000E6161886067001164E602C7894E660DC11
:1010B00080257D187F0E120E377893EFF6BF02134E
:1010C000788E08E6161886067001164E600578942C
:1010D000E660DFE478A9F67893E664016002616473
:1010E000AE4AAF4B7D18122C517404254BF54BE4DE
:1010F000354AF54A787FE620E40241097F80AC4812
:10110000AD49122C3574042549F549E43548F548B4
:10111000788BE6FE08E6FF18A60608A607787FE6A5
:1011200030E03A7890E6FE08E6FF788EA60608A63C
:1011300007787FE6FFE4FD120E377893EFF6BF02E3
:1011400013788E08E6161886067001164E6005782C
:1011500094E660DD7893E66401600261647890E66D
:10116000FE08E6FF788EA60608A607787FE6FF7DD4
:1011700018120E377893EFF6BF0213788E08E61632
:101180001886067001164E60057894E660DD789347
:10119000E66401703BE518788656788066701EE537
:1011A000197887567881667014E51A78885678829F
:1011B00066700AE51B7889567883666013788B0819
:1011C000E6161886067001164E60057894E6608D66
:1011D000E518788656788066701EE5197887567807
:1011E00081667014E51A788856788266700AE51B65
:1011F00078895678836660067893E64410F678938B
:10120000E664017002419461647890E6FE08E6FFAE
:10121000788EA60608A607787FE630E03778A9E63C
:101220007072787FE6FFE4FD120E377893EFF6BF19
:101230000213788E08E6161886067001164E6005B1
:101240007894E660DD7893E664016002616478A9D1
:1012500076018040787FE6FF7D18120E377893EF95
:10126000F6BF0213788E08E6161886067001164E31
:1012700060057894E660DD7893E66401600261645D
:10128000AE4AAF4B7D18122C517404254BF54BE43C
:10129000354AF54AE478AAF6615778A9E6605078AD
:1012A00090E6FE08E6FF788EA60608A6077D187F62
:1012B0000E120E377893EFF6BF0213788E08E616FB
:1012C0001886067001164E60057894E660DF789304
:1012D000E6640160026164AE4AAF4B7D18122C5186
:1012E0007404254BF54BE4354AF54AE478A9F67FBA
:1012F00018AC48AD49122C3574042549F549E4353C
:1013000048F548787FE630E5137886A61808A619D0
:1013100008A61A08A61B78937601803B7890E6FE13
:1013200008E6FF788EA60608A607787FE6FF7D18F8
:10133000120E377893EFF6BF0213788E08E6161870
:1013400086067001164E60057894E660DD7893E6B7
:10135000B4011178AA7601787C067894E670057855
:10136000851601517885E6602C0549E549AE48703F
:1013700002054814F5828E83E0787FF6E630E105B9
:1013800030E40D800074042549F549E43548F548FA
:1013900078851680CF7893E664016002812378A96E
:1013A000E6604C7890E6FE08E6FF788EA60608A672
:1013B000077D187F0E120E377893EFF6BF02137871
:1013C0008E08E6161886067001164E60057894E6BB
:1013D00060DF7893E66401704AAE4AAF4B7D181225
:1013E0002C517404254BF54BE4354AF54A8034788A
:1013F000AAE6602F7890E6FE08E6FF788EA606083B
:10140000A607E4FD7F0E120E377893EFF6BF0213A6
:10141000788E08E6161886067001164E60057894D8
:10142000E660DF787CE6AB4FAA50A951122407781A
:1014300093E6AB4FAA50A951900001122419AD4B6D
:10144000AE05C3EE99FF22E4FD7F50120003E4FFD6
:10145000121B787D017F50120003D20A1218008FF0
:1014600041D20A1218008F42D20A1218008F43D2BA
:101470000A121800AB07E4F561F560F55FF55EE56B
:10148000614BF561E560F560E55FF55FE55EF55E92
:10149000AF61AE60AD5FAC5E78081225D18F618E12
:1014A000608D5F8C5EE5614543F561E560F560E563
:1014B0005FF55FE55EF55EAF61AE60AD5FAC5E7837
:1014C000081225D18F618E608D5F8C5EE56145428B
:1014D000F561E560F560E55FF55FE55EF55EAF61DE
:1014E000AE60AD5FAC5E78081225D18F618E608DE5
:1014F0005F8C5EE5614541F561E560F560E55FF5AE
:101500005FE55EF55ED20A1218008F41D20A12180A
:10151000008F42D20A1218008F43D20A121800AB71
:1015200007E4F569F568F567F566E5694FF569E57E
:1015300068F568E567F567E566F566AF69AE68ADBD
:1015400067FC78081225D18F698E688D678C66E5F7
:10155000694543F569E568F568E567F567E566F5AA
:1015600066AF69AE68AD67FC78081225D18F698EC9
:10157000688D678C66E5694542F569E568F568E55B
:1015800067F567E566F566AF69AE68AD67FC780834
:101590001225D18F698E688D678C66E5694541F5A6
:1015A00069E568F568E567F567E566F566D20A12EC
:1015B0001800EF24FF9213C20A121800EF24FF92C2
:1015C00014122295A214920A122218A213920A024D
:1015D00007F1C0E0C083C082C0D075D010309849F8
:1015E000300F23D20CAF75057574C02FF582E4342B
:1015F00003F583E599F0200B2E8575D3757500539F
:10160000D2FCC20F8021D20BAF75057574802FF507
:1016100082E43403F583E599F0200C0B8575D375CE
:10162000750053D2FCD20FC298309972301035E554
:1016300076C39578500EAF76057674402FF582E428
:1016400034038033757600300D16C210AF76057600
:1016500074002FF582E43403F583E0F59953D2F357
:10166000C20E8038E576C395775013AF7605767451
:10167000002FF582E43403F583E0F599801E75763A
:1016800000300E16D210AF76057674402FF582E446
:101690003403F583E0F59953D2F3C20DC299E5699D
:1016A0002401F569E43568F568E43567F567E435E4
:1016B00066F566E56524C8F56DE43564F56CE435DA
:1016C00063F56BE43562F56AD0D0D082D083D0E088
:1016D000321222727F057E00122231121D7A1221EF
:1016E000417B007A0079B87D017F201220337E0093
:1016F0007F087D007B017A0079401226F975A1559B
:1017000075A1AA75A981D2AF7895E660FB1222B0C7
:10171000120C921218C220181B7898E6FF78966671
:101720006012D2187899E6F5D78FE653D6FC7898F0
:10173000744026F630172978B706E6187001067847
:10174000B6E6FE08E6B40008EEB41804C2B2802D76
:10175000C3EE94304027E478B6F608F6D2B2801D86
:10176000AF65AE64AD63AC62AB6DAA6CA96BA86AE1
:10177000D31225AD4003D38001C3B392B230199088
:10178000C2AFE4F5E275D1807F64FE122231AA7304
:10179000A97412260AE110E4F528F527F526F525A7
:1017A0009000031223DAF5259000021223DAF526C1
:1017B0009000011223DAF5271223C1F528C2ACE408
:1017C0007F08FEFDFCAB28AA27A926A82512249095
:1017D000E42FFFEE3436FEED346EFDEC3401FCE414
:1017E0007B10FAF9F812251BAB28AA27A926A825F1
:0E17F00012251BEFF404F58DD2AC22A21322B9
:10180000E4F544A2AF33F545D291121FF8D290A26D
:1018100091E4334244121FF8C290E54425E0F544B8
:10182000121FF8D290A291E4334244121FF8C290E2
:10183000E54425E0F544121FF8D290A291E433422A
:1018400044121FF8C290E54425E0F544121FF8D277
:1018500090A291E4334244121FF8C290E54425E07F
:10186000F544121FF8D290A291E4334244121FF8BB
:10187000C290E54425E0F544121FF8D290A291E40D
:10188000334244121FF8C290E54425E0F544121F8C
:10189000F8D290A291E4334244121FF8C290E5447A
:1018A00025E0F544121FF8D290A291E4334244128D
:1018B0001FF8C290121FF8A20AB3121FF4C290AF11
:1018C0004422AF5DAE5CAD5BAC5AAB65AA64A96364
:1018D000A862C31225AD50022179E5652460F55D4B
:1018E000E56434EAF55CE43563F55BE43562F55AAA
:1018F000B2B2E4FD7F50120003E4FF121B78AF6127
:10190000AE60AD5FAC5EE4121B78AF61AE60AD5F00
:10191000AC5E78081225BEE4121B78AF61AE60ADF4
:101920005FAC5E78101225BEE4121B78AF61AE602A
:10193000AD5FAC5E78181225BEE4121B78AF69E487
:10194000121B78AF69AE68AD67AC6678081225BE29
:10195000E4121B78AF69AE68AD67AC6678101225EB
:10196000BEE4121B78AF69AE68AD67AC667818123A
:1019700025BEE4121B78122295228B4D8A4E894F88
:10198000EF543F78B0F670027640EF30E76178B000
:10199000E67002412BE478AEF678B1760878B1E6CD
:1019A000FF602718E66023C297A295E43318F6D2A9
:1019B0009718E6C313FEF608E6FDC43333335480AC
:1019C0004E18F678B116181680D378AEE6FEA80742
:1019D000088002C313D8FCFF78AEF6AB500552E581
:1019E00052AA517002055114F9EF122407809F7812
:1019F000B0E66037AB4D054FE54FAA4E7002054E7D
:101A000014F91223C178AEF678B1760878B1E660A1
:101A1000DE18E660DA78AEE6FF139295C297D297A9
:101A2000EFC313F678B116181680E122C0E0C0F0BB
:101A3000C083C082C0D075D000C000C001C002C049
:101A400003C004C005C006C00775CDF875CC30AF23
:101A500065AE64AD63AC62EF2401F565E43EF56408
:101A6000E43DF563E43CF562E5592401F559E435BC
:101A700058F558E43557F557E43556F556E47FE800
:101A80007E03FDFCAB59AA58A957A856C31225AD31
:101A90007027F559F558F557F556AF61AE60AD5F53
:101AA000AC5EEF2401F561E43EF560E43DF55FE4F2
:101AB0003CF55EB200A20092B5C2CFD007D006D0EE
:101AC00005D004D003D002D001D000D0D0D082D035
:101AD00083D0F0D0E0328C488D49AB07AA068B82C8
:101AE0008A83E078A9F6A3E008F68B828A83A3A311
:101AF000A3E0FE8B828A83A3A3E0FDEE08F6ED0847
:101B0000F6EB2404F582E43AF583E0700CEB24054F
:101B1000F582E43AF583E0600978ABE64480F608A4
:101B2000E6F678AAE6FF30E00B18E630E004D2973C
:101B30008002C297EF30E10C78A9E630E104D2953B
:101B40008002C29578AAE630E70B18E630E704D2A7
:101B5000948002C294A295E43325E0FFA297E43377
:101B60004F78A9F6209404E64480F678A9E68549E2
:101B700082854883F07F01228F46A2AFE433F54887
:101B8000121FEAE54625E0F546C290121FF8121F23
:101B9000EAE54625E0F546C290121FF8121FEAE575
:101BA0004625E0F546C290121FF8121FEAE54625C9
:101BB000E0F546C290121FF8121FEAE54625E0F54F
:101BC00046C290121FF8121FEAE54625E0F546C20C
:101BD00090121FF8121FEAE54625E0F546C2901262
:101BE0001FF8121FEAE54625E0F546C290121FF8DD
:101BF000D291D290121FF87F002091027F018F476F
:101C0000C290121FF8E54724FF22C2ACE5D230E7AC
:101C10004285DB777E037F00120800EF707B120F96
:101C2000FC40097BFF7A307981021F3C200E18C2EC
:101C300010AF76057674002FF582E43403F583E067
:101C4000F59953D2F38008E5D254F34408F5D2D283
:101C50000D804485DB787E037F40120800EF7039E9
:101C6000120FFC400D7BFF7A307981121F3C53D25A
:101C7000F322200D18D210AF76057674402FF5822E
:101C8000E43403F583E0F59953D2F38008E5D254A8
:101C9000F34408F5D2D20ED2AC228B488A49894A45
:101CA000E478A9F6EF24FE60171460161460162479
:101CB00014602B24F2605514603424FE705D8002A1
:101CC0008000E4802478A97606E6FF7E00A84AAC6E
:101CD00049AD487BFF7A3079B512239B803DAB48F4
:101CE000AA49A94A740112240778A9F6802DAB48A5
:101CF000AA49A94A7440122407AB48AA49A94A90A4
:101D00000001E412241978A97602800FAB48AA4991
:101D1000A94A740412240778A9760178A9E6FF225B
:101D20008E488F498C4A8D4B788DE6147011AD4BDF
:101D3000AC4AAF49AE4812056F78A9A6078017854F
:101D40004B82854A83E4F0A3F0854B82854A83A3C6
:101D5000A3F078A97603854982854883A3A3A3E0ED
:101D600030E102800C854982854883854982854817
:101D70008378A9E6F678A9E6FF22C2EAE4F5E275DF
:101D8000D18053D1FB53E2BF75ED0075EC0053EAEF
:101D9000F375DC0275EF0375EE0043EAC043EA1009
:101DA00075D21275E50175E40075E70275E600432A
:101DB000EB4853EBEE75D41275D61A43EA04F5E3FB
:101DC00043E22943D10175D8FF75E107D2EAF5D383
:101DD000F5D522754A1EE4F54BF54CF54D7D4AFFCD
:101DE000120E37E4F54A7D4A7F08120E37754A1203
:101DF000754D237D4A7F01120E37754A0C754BEDE8
:101E0000E4F54C754DE07D4A7F05120E37754A07A3
:101E1000E4F54B754CFA754D057D4A7F0D120E3772
:101E20007D4A7F0E020E378B4A8A4B894CE478AA92
:101E3000F608F6AE071FEE603678ABE67016AB4AD2
:101E4000054CE54CAA4B7002054B14F91223C1183E
:101E5000F608760878AAE6FE30E004D2958002C241
:101E600095C297EEC31378AAF60816D29780C422BB
:101E70008C488D49AB07AA068B828A83E0787EF670
:101E8000A3A3E0FE8B828A83A3E0FDEE7890F6EDBB
:101E900008F6EB2404F582E43AF583E0FE8B828AAF
:101EA00083A3A3A3E0FDEE788BF6ED08F6854982C7
:101EB000854883E4F07F0122E4FD7F50120003E4B3
:101EC000FF121B78E4FF121B78E4FF121B78E4FF7B
:101ED000121B78E4FF121B78E4FF121B78E4FF1258
:101EE0001B78E4FF121B78E4FF121B787F01121BA2
:101EF000787F01121B78122295021447C2ACE5D2FA
:101F000030E61C300C0D8575D3E4F57553D2FCC258
:101F10000F8008E5D254FC4402F5D2C20B801A307F
:101F20000B0D8575D3E4F57553D2FCD20F8008E50F
:101F3000D254FC4402F5D2C20CD2AC228B2D8A2E94
:101F4000892F200F0B7530017531037532808009A0
:101F50007530017531037532C0A832AC31AD30AB8C
:101F60002DAA2EA92F1226DCAB2DAA2EA92F122CBA
:101F7000698FD353D2FCB20F228C4A8D4B8F828E45
:101F800083A3E0F5188F828E83A3A3E0F5198F82D7
:101F90008E83A3A3A3E0F51AEF2404F582E43EF5B3
:101FA00083E0F51B7D18E4FF120E37854B82854ACE
:101FB00083E4F07F01228C488D498F828E83E0FF7D
:101FC00078A9700476018002A60778A9E614700942
:101FD000788D76011220EE8004E478A9F678A9E6DF
:101FE000854982854883F07F0122E546C413131397
:0F1FF000540124FF9291D2907F0A7E000221E4D7
:102000008C488D49AB07AA060BEB70010A14F582C8
:102010008E83E078A9F6E6700276FF78A9E6FFAD38
:1020200003A9057B01121E27854982854883E4F0B8
:102030007F01228B418A4289437585C0EF25E0FFED
:10204000E4FEEEC39D501CEE25E02FF58475868ED0
:10205000AB41AA42A9438E82758300E58E122419F2
:102060000E80DFAF0622C3E49DFDE49CFCEF700907
:10207000EDF58AAF04EFF58C22BF0107EDF58BEC8F
:10208000F58D22BF020EAF05EDF5CC8FCAAF04EC83
:10209000F5CD8FCB22EF7009E58954F04DF589809D
:1020A0001FBF010EEDC454F0FFE589540F4FF589B1
:1020B000800EBF0208C2CDC2CCC2C880037FFF22FF
:1020C0007F00228C488D498F828E83E01460030448
:1020D0007007A3E0139217800A85498285488374AC
:1020E000FF8007854982854883E4F07F012253926F
:1020F0007F439380D2975392DF439320D295D2941B
:102100005392EF439310D2965396BF43974075FC7A
:102110000875FA0875FB0C228C488D49788DE614F9
:10212000700DAD49AC48121F7978A9A607800D85BE
:10213000498285488374FFF078A9760178A9E6FF83
:1021400022439603439703C2CDC2CC438780E589DF
:10215000540F4420F58943C9A0758DF3D28E75982C
:1021600050A2BCE43342B8D2AC228F828E83E07896
:10217000A9F6E6FF5403047892F6EF7F0030E202FE
:102180007F017884A6078D828C83E4F07F01228F03
:102190002D8D2EE4FD7F5012000350F7AF2D121B42
:1021A00078AF2E121B781222957F647E000221E404
:1021B0008B488A49894AE4788DF6122284AB48AA72
:1021C00049A94AE41224077F01228E488F49121D33
:1021D000D3854982854883A3E4F085498285488375
:1021E000F07F0222EF4E601505A105A105A105A112
:1021F00005A105A105A1EF1F70EA1E80E72253C9C2
:10220000BFC2C97D017F021220957D307CF87F011D
:10221000122066D2CAD2AD22300A0B4396034397EE
:1022200003D2ACD28E225396FC5397FCC2ACC28E22
:1022300022AD07AC06ED4C600E7FE87E031221E470
:10224000ED1D70F11C80EE22A2019214A201920AEF
:10225000122218A201E433FD7F0902218FA201920C
:1022600013A201920A1207F1A201E433FD7F0802D2
:10227000218F75A15575A1AAE5B954F84406F5B9A1
:10228000E4F5A122D2945392DF5393DF53927F530C
:10229000937FC29622C291121FF8D290121FF81299
:1022A0001FF8D29122439203439303D291D29022FA
:1022B000120FF91221FE021447AF61AE60AD5FACA0
:1022C0005E22AF69AE68AD67AC6622E709F608DF4B
:1022D000FA8046E709F208DFFA803E88828C83E7BD
:1022E00009F0A3DFFA8032E309F608DFFA8078E329
:1022F00009F208DFFA807088828C83E309F0A3DF9B
:10230000FA806489828A83E0A3F608DFFA8058891C
:10231000828A83E0A3F208DFFA804C80D280FA80C0
:10232000C680D4806980F28033801080A680EA80E5
:102330009A80A880DA80E280CA803389828A83EC1E
:10234000FAE493A3C8C582C8CCC583CCF0A3C8C5A2
:1023500082C8CCC583CCDFE9DEE7800D89828A8321
:10236000E493A3F608DFF9ECFAA9F0EDFB228982E9
:102370008A83ECFAE0A3C8C582C8CCC583CCF0A39D
:10238000C8C582C8CCC583CCDFEADEE880DB8982A1
:102390008A83E493A3F208DFF980CC88F0EF600130
:1023A0000E4E60C388F0ED2402B4040050B9F582EB
:1023B000EB2402B4040050AF232345822390231B57
:1023C00073BB010689828A83E0225002E722BBFEAA
:1023D00002E32289828A83E49322BB010CE58229ED
:1023E000F582E5833AF583E0225006E92582F8E696
:1023F00022BBFE06E92582F8E222E58229F582E584
:10240000833AF583E49322BB010689828A83F02212
:102410005002F722BBFE01F322F8BB010DE5822931
:10242000F582E5833AF583E8F0225006E92582C873
:10243000F622BBFE05E92582C8F222BC000BBE00D5
:1024400029EF8DF084FFADF022E4CCF875F008EFB1
:102450002FFFEE33FEEC33FCEE9DEC984005FCEED6
:102460009DFE0FD5F0E9E4CEFD22EDF8F5F0EE8407
:1024700020D21CFEADF075F008EF2FFFED33FD40CC
:1024800007985006D5F0F222C398FD0FD5F0EA2246
:10249000E88FF0A4CC8BF0A42CFCE98EF0A42CFCEB
:1024A0008AF0EDA42CFCEA8EF0A4CDA8F08BF0A469
:1024B0002DCC3825F0FDE98FF0A42CCD35F0FCEBC8
:1024C0008EF0A4FEA9F0EB8FF0A4CFC5F02ECD398D
:1024D000FEE43CFCEAA42DCE35F0FDE43CFC227584
:1024E000F008758200EF2FFFEE33FECD33CDCC33F5
:1024F000CCC58233C5829BED9AEC99E58298400C5D
:10250000F582EE9BFEED9AFDEC99FC0FD5F0D6E43A
:10251000CEFBE4CDFAE4CCF9A88222B800C1B90020
:1025200059BA002DEC8BF084CFCECDFCE5F0CBF981
:102530007818EF2FFFEE33FEED33FDEC33FCEB3379
:10254000FB10D703994004EB99FB0FD8E5E4F9FAA7
:10255000227818EF2FFFEE33FEED33FDEC33FCC98C
:1025600033C910D7059BE99A4007EC9BFCE99AF91F
:102570000FD8E0E4C9FAE4CCFB2275F010EF2FFF8E
:10258000EE33FEED33FDCC33CCC833C810D7079BF8
:10259000EC9AE899400AED9BFDEC9AFCE899F80F5B
:1025A000D5F0DAE4CDFBE4CCFAE4C8F922EB9FF5F0
:1025B000F0EA9E42F0E99D42F0E89C45F022E86096
:1025C0000FECC313FCED13FDEE13FEEF13FFD8F178
:1025D00022E8600FEFC333FFEE33FEED33FDEC3343
:1025E000FCD8F122D083D082F8E493701274019366
:1025F000700DA3A393F8740193F5828883E4737438
:1026000002936860EFA3A3A380DF8A838982E473C7
:10261000E709F60870FA8046E709F20870FA803E8A
:1026200088828C83E709F0A370FA807EE309F608BC
:1026300070FA8076E309F20870FA806E88828C83E3
:10264000E309F0A370FA806289828A83E0A3F60826
:1026500070FA805689828A83E0A3F20870FA804A71
:1026600080D280FA80C680D4806580F2803180106C
:1026700080A680EA809A80A880DA80E280CA8031D1
:1026800089828A83ECFAE493A3C8C582C8CCC58347
:10269000CCF0A3C8C582C8CCC583CC70E9800D89B5
:1026A000828A83E493A3F60870F9ECFAA9F0EDFBB3
:1026B0002289828A83ECFAE0A3C8C582C8CCC5838C
:1026C000CCF0A3C8C582C8CCC583CC70EA80DD89B4
:1026D000828A83E493A3F20870F980CE88F0ED2417
:1026E00002B4040050C4F582EB2402B4040050BAD2
:1026F000232345822390266073EF4E6012EF600122
:102700000EEDBB010B89828A83F0A3DFFCDEFA2287
:1027100089F05007F709DFFCA9F022BBFEFCF309A2
:10272000DFFCA9F022FAE6FB0808E6F925F0F61826
:10273000E6CA3AF622E53C2430F8E6053C22782D3C
:102740003008027830E475F0011227250223C120F9
:1027500001EB7F2ED2018018EF540F2490D4344027
:10276000D4FF30050BEF24BFB41A0050032461FFDF
:10277000E53D6002153D0540E5407002053F30082B
:102780000D782DE475F001122725EF022407022CA5
:102790000E7403D2088003E4C208F53C8B2D8A2E08
:1027A000892FE4F53DF53FF540E53D60077F2012B8
:1027B000277080F5753EFFC202C201C203C204C287
:1027C00006C207C20912273EFF700D3008057F00C0
:1027D000122781AF40AE3F22B4255FC2D5C2051299
:1027E000273EFF24D0B40A00501A75F00A783D3015
:1027F000D50508B6FF0106C6A426F620D50470024A
:10280000D20480D924CFB41A00EF5004C2E5D20517
:10281000022981D20280C6D20180C0D20380BCD2FC
:10282000D580BAD20680B47F2012277020030774A7
:1028300001B53D0040F1122735FF1227700227A98C
:10284000D209D2078095122735FB122735FA1227B5
:1028500035F94A4B700679527A2A7BFF20032EE520
:102860003D602A7E008E827583001223DA60060E98
:10287000EE653E70F0C2D5EBC0E0EAC0E0E9C0E032
:10288000EE1229C8D0E0F9D0E0FAD0E0FB1223C163
:10289000FF60AAEBC0E0EAC0E0E9C0E0122770D018
:1028A000E02401F9D0E03400FAD0E0FBE53E04601A
:1028B000DCD53ED980877BFF7A2979C4D203809CFE
:1028C000791080027908C207C2098008D2D5790A36
:1028D0008004790AC2D5E53E047002F53EE4FAFDB3
:1028E000FEFF122735FC7B08200213122735FD7BE3
:1028F0001030010A122735FE122735FF7B20EC33FA
:1029000082D592D55013C3E43001069FFFE49EFEAA
:10291000E42002039DFDE49CFCE4CBF8C202EC70D1
:102920000CCFCECDCCE824F8F870F38017C3EF338A
:10293000FFEE33FEED33FDEC33FCEB33FB9940024D
:10294000FB0FD8E9EB300205F8D0E0C448B202C072
:10295000E00AEC4D4E4F78207B0070C2EAB53E0095
:1029600040BCC0E01229CAD0F0D0E0200204C4C0AC
:10297000E0C4B202C0F0122759D0F0D5F0EB022724
:10298000A91225E428465328C05828174C2813427A
:1029900028C44F28CC4428CC49282C4328D2552879
:1029A000B64628B64528B6472A7250281B2D281F40
:1029B0002E28422B2823232840202A5B2A27DB4865
:1029C0000000283A3F3F3F00790AA2D52004143086
:1029D0000609B910020404B9080104A2D5200702AF
:1029E0005001042003689203B53D005034C0E07FDD
:1029F000203004197F30A20372077206500F122A8A
:102A000021C203C207C206C2097F30800F3006030D
:102A1000E9C0E0122770300603D0E0F9D0E0B53D00
:102A2000CC3006177F30B9100C1227707F58300554
:102A3000077F788003B908031227703003057F2DC4
:102A40000227707F202009F87F2B2007F3229203B2
:102A500080CF286E756C6C2900D2021227353002A7
:102A6000F8C202783D30D50108F60227DB2D50432D
:102A700049581227352403B405004001E4902A6D1B
:102A800093122761743A122761D204753D0402281B
:102A9000C0787FE4F6D8FD7581B8022AD80216D135
:102AA000E493A3F8E493A34003F68001F208DFF473
:102AB0008029E493A3F85407240CC8C333C4540FEB
:102AC0004420C8834004F456800146F6DFE4800BBE
:102AD0000102040810204080902B1DE47E019360C9
:102AE000BCA3FF543F30E509541FFEE493A36001EB
:102AF0000ECF54C025E060A840B8E493A3FAE49355
:102B0000A3F8E493A3C8C582C8CAC583CAF0A3C802
:102B1000C582C8CAC583CADFE9DEE780BEC1190124
:102B20009400C11201B8FFC111046200000000044A
:102B30005600000000045A0000EA60C115C116C129
:102B40000D017700C10E017800C10BC10C017600A8
:102B5000017500C110C10FC117019700019D00014F
:102B60009600019800C118029E000007A200E10033
:102B70000000000852004A120330003000300030DC
:102B8000003000300030003000037200380002B620
:102B90000000046A000003E8046E5A5A5A5A008B77
:102BA0002D8A2E892FAB30AA31A9321223C1FEAB58
:102BB0002DAA2EA92F1223C1FF6E702BEF600DE5F9
:102BC0003415347002153314453370037F002274BA
:102BD00001252FF52FE4352EF52E74012532F5321F
:102BE000E43531F53180BEAB2DAA2EA92F1223C1B9
:102BF000FDD3EE6480F8ED64809840037F0122AB42
:102C000030AA31A9321223C1FFC3ED9FFF22EFB4D6
:102C10000A07740D122C19740A309811A899B81368
:102C20000CC2983098FDA899C298B811F63099FD59
:102C3000C299F59922EFF97583018D82E0F70905B4
:102C400082E0F7090582E0F7090582E0F7090582CD
:102C50002205A27583028F8215A2EDF9E7A509E787
:102C6000A509E7A509E7A50922E4FFFE1223C16033
:102C70000C0FEF70010E09E970F20A80EF22444256
:102C8000472B00524553455400555044415445008C
:102C9000535744003D44495341424C45004F6E2D2B
:102CA000626F617264205357442064656275676780
:102CB00065722068617320646973636F6E6E65630B
:102CC0007465642066726F6D207461726765742E1E
:102CD0000D0A003D454E41424C45004F6E2D626F3E
:102CE000617264205357442064656275676765723A
:102CF0002068617320636F6E6E6563746564207411
:102D00006F207461726765742E0D0A003F004F6E6C
:102D10002D626F6172642053574420646562756749
:102D20006765722073746174653A2025730D0A001B
:102D3000454E41424C45440044495341424C454470
:102D4000004442472B5357443C3D454E41424C457D
:102D50007C3D44495341424C457C3F3E0D0A005561
:102D6000415254004F6E2D626F6172642055415282
:102D7000542D5553422062726964676520686173FF
:102D800020646973636F6E6E656374656420667238
:102D90006F6D207461726765742E0D0A004F6E2D81
:102DA000626F61726420554152542D555342206226
:102DB00072696467652068617320636F6E6E656316
:102DC00074656420746F207461726765742E0D0AD7
:102DD000004F6E2D626F61726420554152542D5523
:102DE0005342206272696467652073746174653A46
:102DF0002025730D0A004442472B554152543C3D57
:102E0000454E41424C457C3D44495341424C457CF2
:102E10003F3E0D0A00494E464F00534E3A20000AED
:102E2000506F7765724F6E3A2000256C752048729E
:102E300073000A554152545472616E733A20002552
:102E40006C75204B420A00434C4541525354415447
:102E5000494E464F0053544154494E464F206861F5
:102E60007320636C6561722E0D0A004442472B3C4F
:102E700052455345547C5550444154457C53574426
:102E80007C554152547C494E464F3E2E0D0A00124D
:102E9000011002EF020140280D04020001010203AB
:102EA0000109024A0002010080FA0904000002FF41
:102EB00000000407050202400000070583024000ED
:102EC00000090401000202020105052400100105A9
:102ED0002401000104240202052406000107050163
:102EE00002400000070581024000000403090408B5
:102EF00003410052004D002C034400410050004C9F
:102F00000069006E006B00200055004E0044004533
:102F100000460049004E0045002000540045004393
:102F2000004800300343004D005300490053002D7A
:102F300000440041005000200055004E0044004570
:102F400000460049004E0045002000540045004363
:102F50000048001E034400410050004C0069006E10
:102F6000006B002D004300440043004500780074CE
:102F700000050F280002071002000000001C1005C9
:102F800000DF60DDD88945C74C9CD2659D9E648A70
:102F90009F00000306AA0020000A000000000003B2
:102FA00006AA00080002000000A000140003005759
:102FB000494E55534200000000000000000000840C
:102FC00000040007002A00440065007600690063E1
:102FD00000650049006E00740065007200660061C3
:102FE000006300650047005500490044007300007D
:102FF0000050007B00430044004200330042003593
:1030000000410044002D0032003900330042002D01
:103010000034003600360033002D004100410033FB
:103020000036002D003100410041004500340036DB
:10303000003400360033003700370036007D0000D2
:1030400000000005010906A101050719E029E7159F
:10305000002501750195088102950175088101958A
:103060000375010508190129039102950575019160
:10307000019506750826FF000507190029918100B2
:10308000C05479706520224442472B554152543D2B
:10309000454E41424C452220746F20656E61626C42
:1030A0006520554152542D55534220627269646720
:0B30B000652E0D0A00322E302E30007D
:00000001FF
