:0629D500322E302E30000E
:03233900017F0021
:062000008B418A42894376
:10200600E47894F6EF24FE60171460161460162424
:1020160014602B24F2605514603424FE705D800237
:102026008000E4802478947606E6FF7E00A843AC20
:1020360042AD417BFF7A2979D5121517803DAB4118
:10204600AA42A94374011215837894F6802DAB41F8
:10205600AA42A9437440121583AB41AA42A94390F0
:102066000001E412159578947602800FAB41AA42DE
:0F207600A9437404121583789476017894E6FFD9
:012085002238
:081FC6008C418D42AB07AA0615
:101FCE008B828A83A3E0FE8B828A83E0FDEE789477
:101FDE00F6ED08F6789408E61618700116148606C3
:0C1FEE004E70F1854282854183F07F0136
:011FFA0022C4
:1027C6008C418D428F828E83E0146003047007A3D0
:1027D600E013920A800A85428285418374FF80074E
:0B27E600854282854183E4F07F0122E0
:042798008F828E831B
:10279C00E0FF7894700476018002A6077894E61422
:1027AC007009787876011228008004E47894F67821
:0927BC0094E68D828C83F07F010C
:0127C50022F1
:0D27F100E47878F61229A91215837F0122E1
:1007E4008E418F42122511854282854183A3E4F014
:0A07F400854282854183F07F0222D6
:081E95008C418D42AB07AA0647
:101E9D008B828A83E07894F6A3E008F68B828A839E
:101EAD00A3A3A3E0FE8B828A83A3A3E0FDEE08F635
:101EBD00ED08F6EB2404F582E43AF583E0700CEBC3
:101ECD002405F582E43AF583E060097896E64480CE
:101EDD00F608E6F67895E6FF30E00B18E630E004FC
:101EED00D2978002C297EF30E10C7894E630E1048E
:101EFD00D2958002C2957895E630E70E18E630E16E
:101F0D0004C2948005122511D294A295E43325E0E4
:101F1D00FFA297E4334F7894F6209404E64480F6BC
:0C1F2D007894E6854282854183F07F01B4
:011F39002285
:102959008F828E83E07875F6E4F67868F68D828C3E
:0529690083F07F012254
:080FCD008C418D42AB07AA061E
:100FD5000BEB70010A14F5828E83E07894F6E670C7
:100FE5000276FF7894E6FFAD03A9057B011225651E
:0A0FF500854282854183E4F07F010C
:010FFF0022CF
:042853008F828E835F
:10285700E07894F6E6FF540304787DF6EF30E2045F
:102867007F0180027F00786FA6078D828C83E4F05A
:022877007F01DF
:01287900223C
:081C6E008E418F428C438D442E
:101C76000544E544AE437002054314F5828E83E4C1
:101C8600F0789676010876010542E542AE4170028B
:101C9600054114F5828E83E07895F67895E6167000
:101CA60002A1300542E542AE417002054114F582BB
:101CB6008E83E018F6E6FD543F7898F6700276407B
:101CC6007898E62407FFE433FEEF7803CEC313CEFD
:101CD60013D8F97898F6EDD2957894E6FFAA41A93B
:101CE600427B01C0038B4985434A85444BD003128E
:101CF6001D357895E67002D2957894E630E7167829
:101D060096067898E6FF2544F544E43543F54318EE
:101D1600EF26F680867898E6FF2542F542E43541BF
:0E1D2600F541EF04789626F681A17897E6FF46
:011D3400228C
:1025AE008C418D42AB07AA068B828A83E07869F64E
:1025BE00A3A3E0FE8B828A83A3E0FDEE787BF6ED8B
:1025CE0008F6EB2404F582E43AF583E0FE8B828A6A
:1025DE0083A3A3A3E0FDEE7876F6ED08F68542829E
:0825EE00854183E4F07F012226
:081000008E418F428C438D44A8
:10100800AA06A9077545018A468947E47867F678EC
:101018007EF675480185434985444A74022544F59E
:1010280044E43543F543E408F67894F608F60542B7
:10103800E542700205410542E542AE4170020541B4
:1010480014F5828E83E07870F67870E67002616439
:101058000542E542AE417002054114F5828E83E0F7
:10106800786AF6E6FF20E102419A7894E6607D7896
:101078007BE6FC08E6FD7879A60408A605EF54117E
:1010880064017026786AE6FF7D4F121A0F787EEFAA
:10109800F66402703A787908E61618860670011622
:1010A8004E602C787FE660DC80257D4F7F0E121A1B
:1010B8000F787EEFF6BF0213787908E616188606D1
:1010C8007001164E6005787FE660DFE47894F67864
:1010D8007EE6640160026164AE43AF447D4F12282E
:1010E800FC74042544F544E43543F543786AE62066
:1010F800E40241097F6BAC41AD4212000374042540
:1011080042F542E43541F5417876E6FE08E6FF18F7
:10111800A60608A607786AE630E03A787BE6FE0875
:10112800E6FF7879A60608A607786AE6FFE4FD12C6
:101138001A0F787EEFF6BF0213787908E61618863C
:10114800067001164E6005787FE660DD787EE664FD
:101158000160026164787BE6FE08E6FF7879A606FE
:1011680008A607786AE6FF7D4F121A0F787EEFF619
:10117800BF0213787908E6161886067001164E60C5
:1011880005787FE660DD787EE66401703BE54F78A0
:101198007156786B66701EE550787256786C66707A
:1011A80014E551787356786D66700AE5527874566E
:1011B800786E666013787608E6161886067001164B
:1011C8004E6005787FE6608DE54F787156786B66DE
:1011D800701EE550787256786C667014E551787315
:1011E80056786D66700AE552787456786E666006B1
:1011F800787EE64410F6787EE664017002419461D8
:1012080064787BE6FE08E6FF7879A60608A60778E4
:101218006AE630E0377894E67072786AE6FFE4FDB3
:10122800121A0F787EEFF6BF0213787908E61618BF
:1012380086067001164E6005787FE660DD787EE6EA
:10124800640160026164789476018040786AE6FF00
:101258007D4F121A0F787EEFF6BF0213787908E6F1
:10126800161886067001164E6005787FE660DD78F0
:101278007EE6640160026164AE43AF447D4F12288C
:10128800FC74042544F544E43543F543E47895F6C5
:1012980061577894E66050787BE6FE08E6FF787937
:1012A800A60608A6077D4F7F0E121A0F787EEFF666
:1012B800BF0213787908E6161886067001164E6084
:1012C80005787FE660DF787EE6640160026164AEDF
:1012D80043AF447D4F1228FC74042544F544E4359B
:1012E80043F543E47894F67F4FAC41AD42120003D6
:1012F80074042542F542E43541F541786AE630E563
:10130800137871A64F08A65008A65108A652787EF1
:101318007601803B787BE6FE08E6FF7879A606082A
:10132800A607786AE6FF7D4F121A0F787EEFF6BFA0
:101338000213787908E6161886067001164E6005BD
:10134800787FE660DD787EE6B401117895760178DD
:101358006706787FE6700578701601517870E66048
:101368002C0542E542AE417002054114F5828E8398
:10137800E0786AF6E630E10530E40D800074042573
:1013880042F542E43541F54178701680CF787EE623
:101398006401600281237894E6604C787BE6FE085D
:1013A800E6FF7879A60608A6077D4F7F0E121A0F6A
:1013B800787EEFF6BF0213787908E616188606706D
:1013C80001164E6005787FE660DF787EE66401707E
:1013D8004AAE43AF447D4F1228FC74042544F544BB
:1013E800E43543F54380347895E6602F787BE6FE54
:1013F80008E6FF7879A60608A607E4FD7F0E121A0C
:101408000F787EEFF6BF0213787908E6161886067D
:101418007001164E6005787FE660DF7867E6AB48B6
:10142800AA49A94A121583787EE6AB48AA49A94A6F
:0E143800900001121595AD44AE05C3EE99FF6C
:011446002283
:051FFB00E4FB021000F0
:080D3D008E458F468C478D485E
:100D4500E47867F6787EF675490185474A85484B0C
:100D550074032548F548E43547F547E408F60546A4
:100D6500E54670020545F5828545838546828545BC
:100D750083E0FF7870F674022546F546E43545F5BF
:100D850045EF7002C1CD0546E546AE457002054505
:100D950014F5828E83E0786AF6E620E102C14730D9
:100DA500E03A787BE6FE08E6FF7879A60608A6070E
:100DB500786AE6FFE4FD121A0F787EEFF6BF02139C
:100DC500787908E6161886067001164E6005787F54
:100DD500E660DD787EE664016002C1CD7870E616D6
:100DE5007002C1CDE67008786AE630E002760E78CA
:100DF5007BE6FE08E6FF7879A60608A607786AE688
:100E0500FF7D4F121A0F787EEFF6BF02137879082F
:100E1500E6161886067001164E6005787FE660DDD9
:100E2500787EE664016002C1CDAE47AF487D4F12C2
:100E350028FC74042548F548E43547F547786706E6
:100E4500809A7870E61660517F4FAC45AD4612002A
:100E55000374042546F546E43545F545787BE6FEFD
:100E650008E6FF7879A60608A607786AE6FF7D4FAB
:100E7500121A0F787EEFF6BF0213787908E6161876
:100E850086067001164E6005787FE660DD787EE6A1
:100E95006401703478670680A9787BE6FE08E6FF72
:100EA5007879A60608A607E4FD7F0E121A0F787E4C
:100EB500EFF6BF0213787908E61618860670011654
:100EC5004E6005787FE660DF7867E6AB49AA4AA9F8
:100ED5004B121583AB49AA4AA94B900001E41215A0
:100EE50095787EE6900002121595AD48AE05C3EEE5
:020EF50099FF63
:010EF70022D8
:08245E008E418F428C438D4436
:102466007878E6147011AD44AC43AF42AE41120D1C
:102476003D7894A6078017854482854383E4F0A3BC
:10248600F0854482854383A3A3F07894760385423E
:1024960082854183A3A3A3E030E102800C854282BA
:1024A6008541838542828541837894E6F67894E671
:0124B600FF26
:0124B7002202
:10267C008C418D428F828E83A3E0F54F8F828E83A7
:10268C00A3A3E0F5508F828E83A3A3A3E0F551EFB3
:10269C002404F582E43EF583E0F5527D4FE4FF120D
:0D26AC001A0F854282854183E4F07F0122F0
:04287A008D828C833C
:10287E007878E614700DAD82AC8312267C7894A61F
:0E288E0007800774FFF0789476017894E6FFD7
:01289C002219
:0B186A007888E6FF7882667002410E6D
:101875007E0074002FF9EE3401753B01F53C893D7E
:101885007881E62400F9EE3402753E01F53F894082
:101895007888744026F6AB3BAA3CA93D12153DFF5E
:1018A500AB3E0540E540AA3F7002053F14F9EF1233
:1018B5001583AB3B053DE53DAA3C7002053C14F99B
:1018C50012153D121729191A001943011952021947
:1018D500610319D30418FC05190B0619E208196EE2
:1018E50009197D0A19881019971119A61219B51326
:1018F50019C41D000019F1AE3CAF3DAC3FAD40121F
:101905001FFB8F3A4102AE3CAF3DAC3FAD401224C8
:101915005E8F3A4102AB3BAA3CA93D12153DFFAB98
:101925003EE5402401F9E4353FFA1220008F3AAB39
:101935003EAA3FA940E53A121583053A4102AE3C5D
:10194500AF3DAC3FAD401227C68F3A4102AE3CAF2A
:101955003DAC3FAD401227988F3A4102AB3EAA3FBE
:10196500A9401227F18F3A4102AE3CAF3DAC3FADE5
:1019750040121FC68F3A4102AE3FAF401207E48FB7
:101985003A807AAE3CAF3DAC3FAD40121E958F3AE2
:10199500806BAE3CAF3DAC3FAD401229598F3A80CC
:1019A5005CAE3CAF3DAC3FAD40120FCD8F3A804DA4
:1019B500AE3CAF3DAC3FAD401228538F3A803EAEB2
:1019C5003CAF3DAC3FAD40121C6E8F3A802FAE3C14
:1019D500AF3DAC3FAD401225AE8F3A8020AE3CAF57
:1019E5003DAC3FAD4012287A8F3A8011AB3EAA3FFD
:1019F500A94090FFFF74FF121595753A01E53A0469
:091A05007884F67881744026F61D
:011A0E0022B5
:1029970075A15575A1AAE5B954F84406F5B9E4F54A
:0229A700A1226B
:1028E200EF4E601505A105A105A105A105A105A150
:0A28F20005A1EF1F70EA1E80E72227
:10292C00AD07AC06ED4C600E7FE87E031228E2ED9D
:07293C001D70F11C80EE226A
:1028000053927F439380D2975392DF439320D29584
:10281000C2945392EF439310D2965396BF4397407E
:0A28200075FC0875FA0875FB0C2220
:1029A900C2945392DF5393DF53927F53937FC2961E
:0129B90022FB
:1025110075431EE4F544F545F5467D43FF121A0F58
:10252100E4F5437D437F08121A0F75431275462364
:102531007D437F01121A0F75430C7544EDE4F54597
:102541007546E07D437F05121A0F754307E4F54494
:102551007545FA7546057D437F0D121A0F7D437F40
:042561000E021A0F3D
:062565008B438A44894506
:10256B00E47895F608F6AE071FEE60367896E670BF
:10257B0016AB430545E545AA447002054414F91210
:10258B00153D18F60876087895E6FE30E004D295EE
:10259B008002C295C297EEC3137895F60816D297B0
:0225AB0080C4EA
:0125AD00220B
:061D35008B468A47894835
:101D3B00EF543F789BF670027640EF30E761789B6B
:101D4B00E67002A1E6E47899F6789C7608789CE632
:101D5B00FF602718E66023C297A295E43318F6D2EA
:101D6B009718E6C313FEF608E6FDC43333335480ED
:101D7B004E18F6789C16181680D37899E6FEA807AD
:101D8B00088002C313D8FCFF7899F6AB49054BE5E5
:101D9B004BAA4A7002054A14F9EF121583809F78FB
:101DAB009BE66037AB460548E548AA4770020547F6
:101DBB0014F912153D7899F6789C7608789CE660B4
:101DCB00DE18E660DA7899E6FF139295C297D29700
:0B1DDB00EFC313F6789C16181680E189
:011DE60022DA
:041A0F008F4C8D4D1E
:101A1300D295E54C540FFFA2D0E433FD75FA68C4A8
:101A23003354E04481FCEF25E04CF5F930FBFD75C0
:101A3300FA08439220C296787DE6FFEF6009C297C9
:101A43000000D2971F80F4C297A295E433D297FC8B
:101A5300C297A295E433D29725E04204C297A29598
:101A6300E433F9D29725E025E04204EC64016002F7
:101A73006135E54C30E168E4F54EFDFE7F08C29721
:101A8300A295E433F9D297E54EC313F54EE9C43377
:101A930033335480424EDFE6E54EA2D0E4334205B1
:101AA300ED25E0FDE54D60042EF8A64E0EBE04CCF8
:101AB300EDA2D0920EC297A295E433F9D297A20E6B
:101AC300E4336930E0027C08787DE6FFEF6009C209
:101AD300970000D2971F80F45392DFD296803F780D
:101AE3007DE6FFEF6009C2970000D2971F80F45391
:101AF30092DFD296E4FD75FA68FEE54D2EF8E6F521
:101B0300F9A2D0E4334205ED25E0FD30FBFD0EBE26
:101B130004E875FA08EDA2D09295C297D297786936
:101B2300E6FF6070C295EF606BC2970000D2971F0B
:101B330080F4EC64026005EC64047041786FE66045
:101B43000FE54C30E10A7F21C2970000D297DFF8FE
:101B5300787DE6FFEF6009C2970000D2971F80F4FB
:101B63005392DFD296786FE66011E54C20E10CC208
:101B7300957F21C2970000D297DFF88017787DE622
:101B83002421FFEF6009C2970000D2971F80F4530E
:081B930092DFD296D295AF0457
:011B9B002227
:10233C00C102015500C103015600C100C101015485
:08234C0000015300C105C104AA
:10282A00439603439703C2CDC2CC438780E58954BC
:10283A000F4420F58943C9A0758DF3D28E7598503F
:09284A00A2BCE43342B8D2AC2276
:10239D00E4F526F525F524F523900003121556F5E1
:1023AD0023900002121556F524900001121556F5D2
:1023BD002512153DF526C2ACE47F08FEFDFCAB26CB
:1023CD00AA25A924A82312160CE42FFFEE3436FEFD
:1023DD00ED346EFDEC3401FCE47B10FAF9F81216C5
:1023ED0097AB26AA25A924A823121697EFF404F576
:0323FD008DD2ACD2
:0124000022B9
:03002300020EF8D2
:100EF800C0E0C083C082C0D075D01030984930049B
:100F080023D201AF53055374C02FF582E43403F59F
:100F180083E599F020002E8553D375530053D2FCF6
:100F2800C2048021D200AF53055374802FF582E4A8
:100F38003403F583E599F020010B8553D3755300ED
:100F480053D2FCD204C298309972300535E554C3A7
:100F58009556500EAF54055474402FF582E434036F
:100F68008033755400300216C205AF54055474001E
:100F78002FF582E43403F583E0F59953D2F3C203E5
:100F88008038E554C395555013AF54055474002F59
:100F9800F582E43403F583E0F599801E755400303A
:100FA8000316D205AF54055474402FF582E4340378
:100FB800F583E0F59953D2F3C202C299D0D0D0821A
:050FC800D083D0E032EF
:10217E00C2ACE5D230E73485DB557E037F0012001A
:10218E0046EF705B200318C205AF54055474002F40
:10219E00F582E43403F583E0F59953D2F38008E534
:1021AE00D254F34408F5D2D202803285DB567E0338
:1021BE007F40120046EF7027200218D205AF54055B
:1021CE005474402FF582E43403F583E0F59953D22D
:1021DE00F38008E5D254F34408F5D2D203D2AC22F0
:10263C00C2ACE5D230E61C30010D8553D3E4F55322
:10264C0053D2FCC2048008E5D254FC4402F5D2C239
:10265C0000801A30000D8553D3E4F55353D2FCD2CD
:10266C00048008E5D254FC4402F5D2C201D2AC225B
:1022CD004441542B00525354004941500043484956
:1022DD00505F4944004B45593D004B45593F004126
:1022ED005554484F52004769744875623A616267A8
:1022FD00656C65686E742F54696E792D4441504C30
:10230D00696E6B0A0D004B45595F56414C554500A2
:10231D004B45595F464C41534800000000000000FA
:0C232D00000000000000000000000000A4
:02235400C10CBA
:0626B9008B328A338934E4
:1026BF0020040B7535017536037537808009753524
:1026CF00017536037537C0A837AC36AD35AB32AAB6
:1026DF0033A934121821AB32AA33A93412296E8FC1
:0626EF00D353D2FCB2043B
:0126F50022C2
:100046008E238F24AA0EA90F7535018A3689377536
:1000560038007539047BFF7A2279CD12225EEF6073
:1000660002A1BC74042524F524E43523F523753553
:1000760001F5368524377538007539037BFF7A22FA
:1000860079D212225EEF700DC2AF75A15575A1AA85
:1000960043B110A1B97535018523368524377538E6
:1000A600007539037BFF7A2279D612225EEF70043F
:1000B600D20CA1B9753501852336852437753800EC
:1000C6007539077BFF7A2279DA12225EEF600241E8
:0100D60035F4
:1000D70020040B7525017526037527808009752572
:1000E700017526037527C0903FFCE493C4540FFFA6
:1000F700C3940A5005EF2430800A903FFCE493C470
:10010700540F2437AB25AA26A927121583903FFC45
:10011700E493540FFFC3940A5005EF2430800990ED
:100127003FFCE493540F2437AB25AA26A927900058
:1001370001121595903FFDE493C4540FFFC3940A31
:100147005005EF2430800A903FFDE493C4540F24F8
:1001570037AB25AA26A927900002121595903FFDD7
:10016700E493540FFFC3940A5005EF24308009909D
:100177003FFDE493540F2437AB25AA26A927900007
:1001870003121595903FFEE493C4540FFFC3940ADE
:100197005005EF2430800A903FFEE493C4540F24A7
:1001A70037AB25AA26A927900004121595903FFE84
:1001B700E493540FFFC3940A5005EF24308009904D
:1001C7003FFEE493540F2437AB25AA26A9279000B6
:1001D70005121595903FFFE493C4540FFFC3940A8B
:1001E7005005EF2430800A903FFFE493C4540F2456
:1001F70037AB25AA26A927900006121595903FFF31
:10020700E493540FFFC3940A5005EF2430800990FC
:100217003FFFE493540F2437AB25AA26A927900064
:0C0227000712159575D30853D2FCB204E1
:10023300A1B975350185233685243775380075399D
:0D024300047BFF7A2279E212225EEF706BDD
:10025000E5242404F582E43523F583E0FFC39430DC
:10026000400BEFD394395005EF24D0800EE52424C1
:1002700004F582E43523F583E024C9C454F0F52560
:10028000E5242404FFE435238F82F583A3E0FFC334
:100290009430400BEFD394395005EF24D08010E513
:1002A000242404FFE435238F82F583A3E024C925A9
:0902B00025F52578A3A625D20846
:1002B900A1B9753501852336852437753800753917
:0D02C900047BFF7A2279E712225EEF704875
:1002D60078257C00FD7BFF7A237927FE7F051215A2
:1002E6001778A3E6C4540FFFC3940AEF50062430D0
:1002F600F52580042437F52578A3E6540FFFC3942B
:100306000AEF50062430F52680042437F526752793
:060316000A75280D7B00B2
:10031C00A1937535018523368524377538007539D9
:10032C00067BFF7A2279EC12225EEF70087BFF7A53
:10033C002279F3A1977535018523368524377538D5
:10034C00007539097BFF7A23791312225EEF600264
:02035C00A19C62
:10035E0078257C00FD7BFF7A23792CFE7F0D12150C
:10036E0017E559C4F854F0C868FEE55AC4540F484E
:10037E00FFEEC4F854F0C868FEEFC4540F48FFEE09
:10038E00C4F854F0C868FEEFC4540F48FFC3940A73
:10039E00EE94005007EF2430F525802DE559C4F872
:1003AE0054F0C868FEE55AC4540F48FFEEC4F85422
:1003BE00F0C868FEEFC4540F48FFEEC4F854F0C8FE
:1003CE00EFC4540F482437F525E559C4F854F0C846
:1003DE0068FEE55AC4540F48FFEEC4F854F0C8EF57
:1003EE00C4540F487E00540FFFC3940AEE9400507D
:1003FE0007EF2430F5268021E559C4F854F0C8687B
:10040E00FEE55AC4540F48FFEEC4F854F0C8EFC4CA
:10041E00540F48540F2437F526E559C4F854F0C844
:10042E00E55AC4540F487E00540FFFC3940AEE944D
:10043E00005007EF2430F5278013E559C4F854F027
:10044E00C8E55AC4540F48540F2437F5277E00E5EB
:10045E005A540FFFC3940AEE94005007EF2430F560
:10046E00288008E55A540F2437F52875293AE557A0
:10047E00C4F854F0C868FEE558C4540F48FFEEC4E3
:10048E00F854F0C868FEEFC4540F48FFEEC4F85499
:10049E00F0C868FEEFC4540F48FFC3940AEE9400F0
:1004AE005007EF2430F52A802DE557C4F854F0C8D4
:1004BE0068FEE558C4540F48FFEEC4F854F0C868FF
:1004CE00FEEFC4540F48FFEEC4F854F0C8EFC45406
:1004DE000F482437F52AE557C4F854F0C868FEE5EE
:1004EE0058C4540F48FFEEC4F854F0C8EFC4540F6C
:1004FE00487E00540FFFC3940AEE94005007EF2479
:10050E0030F52B8021E557C4F854F0C868FEE55845
:10051E00C4540F48FFEEC4F854F0C8EFC4540F484B
:10052E00540F2437F52BE557C4F854F0C8E558C4DA
:10053E00540F487E00540FFFC3940AEE94005007E8
:10054E00EF2430F52C8013E557C4F854F0C8E55865
:10055E00C4540F48540F2437F52C7E00E558540F21
:10056E00FFC3940AEE94005007EF2430F52D800857
:10057E00E558540F2437F52D752E3A752F307530FA
:0C058E000AE4F531FB7A0079251226B949
:10059A00801D7535018523368524377538007539F0
:1005AA00097BFF7A23791D12225EEF7002D2077F40
:0505BA0001227F002278
:04235600C106C107F4
:102086005393FD5392FDE5C354F84402F5C343C38D
:10209600107B007A0079597D027F10122733E55AAA
:1020A600B4FF08E559B4FF031225F67B007A0079E0
:1020B6009F7D027F12122733789FB6FF1808B6FF5E
:1020C600141876040876007B007A00799F753E0224
:1020D6007F121224017B007A00799D7D027F141203
:1020E6002733789DB6FF1808B6FF141876020876CF
:1020F600007B007A00799D753E027F14122401222E
:1025F600E4FFFE7905AD0119ED601BE4FDFCE5C3C2
:1026060020E7090DED70010C4C70F322E5C42FFF95
:10261600E5C53EFE80DF7C007D051215B78E578F1F
:102626005885575985585A7B007A007959753E0264
:052636007F10122401D9
:01263B00227C
:10294300D3EF9DEE9C4007EF9DFFEE9CFE22C3ED6F
:062953009FFFEC9EFE2236
:1021EE00E4FFFE7905AD0119ED601DE4FDFCE5C3CC
:1021FE0020E70B0DED70010C4C70F37FFF22E5C450
:10220E002FFFE5C53EFE80DD7C007D051215B78EE5
:10221E00578F58AD58AC57AF5AAE59122943AD0728
:10222E00AC06789FE6FE08E6FFD3ED9FEC9E400AD3
:10223E0020060312289DD2068013789DE6FE08E63E
:0F224E00FFC3ED9FEC9E5005300602C2067F00D5
:01225D00225E
:07235A00C10901A3FFC10846
:10289D0078A3E6FFF4601BC209900042EFF075DFEC
:1028AD000853DEFC3009FDE4900042F075DF08535B
:0328BD00DEFC221C
:062401008B3B8A3C893D83
:1024070075A15575A1AA43B104E4F5A17585C0EF7F
:1024170025E0FFE4FEEEC3953E502DEE25E02FF5B7
:1024270084AB3BAA3CA93D8E82758300121556F5F5
:102437008EE58630E60375869AE5866440D3940078
:102447004003AF06220E80CD75A15575A1AA53B1E1
:06245700FBE4F5A1AF0655
:01245D00225C
:062733008B3A8A3B893C51
:102739007585C0EF25E0FFE4FEEEC39D501CEE2534
:10274900E02FF58475868EAB3AAA3BA93C8E82753B
:0C2759008300E58E1215950E80DFAF06A0
:012765002251
:10000300EFF97583018D82E0F7090582E0F70905B1
:0C00130082E0F7090582E0F7090582226F
:1028FC0005A27583028F8215A2EDF9E7A509E7A55C
:08290C0009E7A509E7A509226E
:09236100031D00380002A1000078
:101B9C001229977F057E0012292C1224B812282AAC
:101BAC0012001F7B007A0079A37D017F201227335E
:101BBC007E007F081D7B017A00794012183E1220AE
:101BCC008675A15575A1AA75A981D2AF7880E660FA
:101BDC00FB12186A200B1B7883E6FF788166601273
:101BEC00D20B7884E6F5D78FE653D6FC7883744015
:101BFC0026F6300A04C2B3804678A206E6187001B5
:101C0C000678A1E6FE08E6FF64104E7004D2B3809D
:101C1C0010E4B5070CEEB40508E478A1F608F6C29A
:101C2C00B31221EE3007051225F6C2073008107BDF
:101C3C00007A0079A3753E017F20122401C208E5C9
:101C4C00A254C024FFB392B2300C86C2AFE4F5E2CA
:101C5C0075D1807F64FE12292CAA1EA91F12174F62
:021C6C0061DD38
:1005BF0012011002EF020140280D04020001010296
:1005CF0003010902630003010080FA09040000021D
:1005DF00FF000004070502024000000705830240E8
:1005EF0000000904010002020201050524001001A8
:1005FF000524010001042402020524060001070559
:10060F0001024000000705810240000009040200BA
:10061F000103010106092111010001223E00070516
:10062F008403080020040309040803410052004D0D
:10063F000024034400410050004C0069006E006B21
:10064F0000200043004D005300490053002D00448B
:10065F000041005000300343004D00530049005348
:10066F00002D00440041005000200055004E004472
:10067F00004500460049004E00450020005400454B
:10068F0000430048001E034400410050004C006925
:10069F00006E006B002D00430044004300450078BE
:1006AF0000740022034400410050004C0069006EAA
:1006BF00006B002D004B006500790062006F006138
:1006CF000072006400050F280002071002000000EE
:1006DF00001C100500DF60DDD88945C74C9CD26532
:1006EF009D9E648A9F00000306AA0020000A000056
:1006FF000000000306AA00080002000000A000147A
:10070F0000030057494E55534200000000000000FF
:10071F000000008400040007002A004400650076F2
:10072F000069006300650049006E00740065007287
:10073F0000660061006300650047005500490044F2
:10074F00007300000050007B004300440042003360
:10075F000042003500410044002D003200390033C3
:10076F000042002D0034003600360033002D0041CA
:10077F00004100330036002D00310041004100459B
:10078F0000340036003400360033003700370036AF
:10079F00007D000000000005010906A101050719F1
:1007AF00E029E7150025017501950881029501756E
:1007BF000881019503750105081901290391029517
:1007CF0005750191019506750826FF0005071900AB
:0507DF0029918100C01A
:10236A00C10A018200018800018100018300C10BBA
:10237A0002890000078D00E1000000000852004AAF
:10238A0012033000300030003000300030003000DE
:02239A00300011
:1024B800C2EAE4F5E275D18053D1FB53E2BF75ED72
:1024C8000075EC0053EAF375DC0275EF0375EE0056
:1024D80043EAC043EA1075D21275E50175E4007548
:1024E800E70275E60043EB4853EBEE75D41275D658
:1024F8001A43EA04F5E343E22943D10175D8FF758D
:09250800E107D2EAF5D3F5D52272
:03004300020800B0
:0D080000C0E0C0F0C083C082C0D075D00839
:10080D0020D902A102E5D9543F700281D414604968
:10081D0024E17002817814603024FE601D14604361
:10082D0024F46051242E6002A10020DE02A1007884
:10083D0082744026F6E6F5E4A100C20B75D700E5FB
:10084D00D654FC4402F5D6A10075D300E5D254FC74
:10085D004402F5D212263CA10020DE02A100122195
:10086D007EA10075DF0063DE40E5DE54FC4402F539
:10087D00DED209A10085DB22E522640860028153E6
:10088D00900006E0788BF6A3E0600276FF752200FB
:10089D00900001E0788CF6900000E0546024E07048
:1008AD000261B424E0700261E524406002810B789E
:1008BD008CE6B40B00400261B29008CC25E0736168
:1008CD009741E961B2611F61B241C001E261B2417C
:1008DD00C941DF810E900003E024FE602014602BDF
:1008ED0024F47002419924ED700241A72421600285
:1008FD0041BE755FFF7560057561BF416A755FFF2C
:10090D007560057561D1752263810E900002E0B4AA
:10091D0007004002810B90092925E07321372145FD
:10092D0021532161416F417D418B755FFF756006DC
:10093D00756134752204810E755FFF7560067561F2
:10094D0038752208810E755FFF75600675614075FB
:10095D002224810E903FFCE493C4540FFFC3940AEC
:10096D005005EF2430800A903FFCE493C4540F24CB
:10097D003790004CF0903FFCE493540FFFC3940A62
:10098D005005EF24308009903FFCE493540F243739
:10099D0090004EF0903FFDE493C4540FFFC3940AB2
:1009AD005005EF2430800A903FFDE493C4540F248A
:1009BD0037900050F0903FFDE493540FFFC3940A1D
:1009CD005005EF24308009903FFDE493540F2437F8
:1009DD00900052F0903FFEE493C4540FFFC3940A6D
:1009ED005005EF2430800A903FFEE493C4540F2449
:1009FD0037900054F0903FFEE493540FFFC3940AD8
:100A0D005005EF24308009903FFEE493540F2437B6
:100A1D00900056F0903FFFE493C4540FFFC3940A27
:100A2D005005EF2430800A903FFFE493C4540F2407
:100A3D0037900058F0903FFFE493540FFFC3940A92
:100A4D005005EF24308009903FFFE493540F243775
:100A5D0090005AF0755F0175600075614A7522123C
:100A6D00810E755FFF756006756164752230810EAC
:100A7D00755FFF75600675619475221E810E755F39
:100A8D00FF7560067561B2752222810E755FFF7567
:100A9D0060067561D4752228810E900004E0B402C1
:100AAD000E755FFF7560077561A675223E810E811B
:100ABD000B810B900002E0788BF6810E7880E6902A
:100ACD000000F0788BE6C394015002810E7522016F
:100ADD00810E900002E0FF7880F6810E900000E01C
:100AED00541F6402702A900004E024FE601B2481D0
:100AFD00600D147019E5D454BC4402F5D4810EE593
:100B0D00D254BC4402F5D2810E53D473810E810BA5
:100B1D00810B900000E0541FFD701D900003E0FE5E
:100B2D00900002E0FBEB64014E700B9005D8933002
:100B3D00E502810E810B810BED6402704B90000379
:100B4D00E0FE900002E0FDED4E703B900005E0FEF2
:100B5D00900004E0FDEDFFEE702AEF24FE601124FD
:100B6D0081601714701EE5D454BF4403F5D4810E73
:100B7D00E5D4547F440CF5D4810EE5D254BF440323
:100B8D00F5D2807D807880768074755F0075600009
:100B9D00756189788BE6FFC394024005752202804A
:100BAD00608F22805C8057900000E0541F640170BC
:100BBD0050788CE624E0604924FE601104701775AE
:100BCD005F0075600075618D75220780349000029D
:100BDD00E01392B4802B8026900000E0541F70210A
:100BED00788CE624E07015900004E0B40713755F6F
:100BFD00FF7560067561FC7522AA8005800075225F
:100C0D00FFE5226044F46041788BE6D395224002E3
:100C1D00A622788BE6FFC3944040047F4080008F6E
:100C2D00227E0078007C007D01AB5FAA60A9611275
:100C3D001517C3788BE69522F6E5222561F561E45B
:100C4D003560F56080037522FFE522B4FF09788CCD
:100C5D0076FF75DCCFA100E522D3944050058522A7
:100C6D00DD800375DD0075DCC0A100788CE624FB0A
:100C7D00604224E56004241A7045788BE6FFC39426
:100C8D004040047F4080008F227E0078007C007DF4
:100C9D0001AB5FAA60A961121517C3788BE6952287
:100CAD00F6E5222561F561E43560F5608522DD63A9
:100CBD00DC40803FE5E35480788B46F5E380037597
:100CCD00DD0075DC02802C85DB22788CE6642070DB
:100CDD001F30DE1CAFDBFE087C00FD7B017A007946
:100CED00001215177B007A00798D12239D75DD009A
:100CFD0063DC80C2D930D81475DC0275D21275D47C
:100D0D001275E300C2DAC2D9C20BC2D830DA13C2EF
:100D1D00DAE5DA30E20FE5A220E7FBD2B343870232
:050D2D00800375D8FFF2
:0B0D3200D0D0D082D083D0F0D0E032CF
:03001F000229CAE9
:102914008F628D63E4FD7F80120026AF6212210670
:08292400AF631221060229BA7B
:0228C0008F6423
:1028C200E4FD7F80120026AF641221067D017F8025
:0F28D200120026D20D121DE7AD071229BAAF056D
:0128E10022D4
:082766008F5B8C5C8D5D8B5EC6
:10276E00E4FD7F80120026AF5B122106E4FCECC371
:10277E00955E5013E55D2CF582E4355CF583E493AC
:0A278E00FF1221060C80E70229BAB1
:0826F6008F188B198A1A891B49
:1026FE00E4FD7F80120026AF181221067D017F8037
:10270E00120026E4FCECC3951C5017D20D121DE7E7
:10271E00AB19AA1AA91B8C82758300EF1215950CA2
:05272E0080E30229BA5E
:0D298300EDC4131313540124FF9291D29060
:072990007F047E000228E233
:0B29CA00439203439303D291D290226A
:10002600AC07D291D290122990C291122990C29017
:0B003600122990EC25E04DFF0221068E
:1029BA00C291122990D290122990122990D2912272
:02210600AD0723
:10210800A2AFE433F565122983ED25E0FDC29012F4
:102118002990122983ED25E0FDC2901229901229F9
:1021280083ED25E0FDC290122990122983ED25E068
:10213800FDC290122990122983ED25E0FDC290126C
:102148002990122983ED25E0FDC2901229901229C9
:1021580083ED25E0FDC290122990122983ED25E038
:10216800FDC290122990D291A291E433FD122990D8
:05217800C290ED24FF00
:01217D00223F
:101DE700A2AFE433F566D291D290A291E4334205D3
:101DF700122990C290ED25E0FD122990D290A29170
:101E0700E4334205122990C290ED25E0FD12299096
:101E1700D290A291E4334205122990C290ED25E0B9
:101E2700FD122990D290A291E4334205122990C263
:101E370090ED25E0FD122990D290A291E43342055E
:101E4700122990C290ED25E0FD122990D290A2911F
:101E5700E4334205122990C290ED25E0FD12299046
:101E6700D290A291E4334205122990C290ED25E069
:101E7700FD122990D290A291E4334205122990C213
:0D1E870090122990A20D12298CC290AF0577
:011E9400222B
:03000000021F3AA2
:0C1F3A00787FE4F6D8FD7581A3021F81BA
:10144700E709F608DFFA8046E709F208DFFA803E87
:1014570088828C83E709F0A3DFFA8032E309F60874
:10146700DFFA8078E309F208DFFA807088828C83DC
:10147700E309F0A3DFFA806489828A83E0A3F60890
:10148700DFFA805889828A83E0A3F208DFFA804C6A
:1014970080D280FA80C680D4806980F28033801041
:1014A70080A680EA809A80A880DA80E280CA8033AA
:1014B70089828A83ECFAE493A3C8C582C8CCC58322
:1014C700CCF0A3C8C582C8CCC583CCDFE9DEE780F2
:1014D7000D89828A83E493A3F608DFF9ECFAA9F071
:1014E700EDFB2289828A83ECFAE0A3C8C582C8CCC7
:1014F700C583CCF0A3C8C582C8CCC583CCDFEADEE0
:10150700E880DB89828A83E493A3F208DFF980CC41
:1015170088F0EF60010E4E60C388F0ED2402B4043A
:101527000050B9F582EB2402B4040050AF232345E1
:061537008223901497735B
:10153D00BB010689828A83E0225002E722BBFE02AC
:09154D00E32289828A83E49322DF
:10155600BB010CE58229F582E5833AF583E022504A
:1015660006E92582F8E622BBFE06E92582F8E22294
:0D157600E58229F582E5833AF583E49322AE
:10158300BB010689828A83F0225002F722BBFE0147
:02159300F32241
:10159500F8BB010DE58229F582E5833AF583E8F08C
:1015A500225006E92582C8F622BBFE05E92582C838
:0215B500F22220
:1015B700BC000BBE0029EF8DF084FFADF022E4CC18
:1015C700F875F008EF2FFFEE33FEEC33FCEE9DECE1
:1015D700984005FCEE9DFE0FD5F0E9E4CEFD22ED27
:1015E700F8F5F0EE8420D21CFEADF075F008EF2F71
:1015F700FFED33FD4007985006D5F0F222C398FD62
:051607000FD5F0EA22FE
:10160C00E88FF0A4CC8BF0A42CFCE98EF0A42CFC7D
:10161C008AF0EDA42CFCEA8EF0A4CDA8F08BF0A4FB
:10162C002DCC3825F0FDE98FF0A42CCD35F0FCEB5A
:10163C008EF0A4FEA9F0EB8FF0A4CFC5F02ECD391F
:0F164C00FEE43CFCEAA42DCE35F0FDE43CFC228C
:10165B0075F008758200EF2FFFEE33FECD33CDCC46
:10166B0033CCC58233C5829BED9AEC99E5829840C9
:10167B000CF582EE9BFEED9AFDEC99FC0FD5F0D6A6
:10168B00E4CEFBE4CDFAE4CCF9A88222B800C1B9D0
:10169B000059BA002DEC8BF084CFCECDFCE5F0CB0E
:1016AB00F97818EF2FFFEE33FEED33FDEC33FCEB47
:1016BB0033FB10D703994004EB99FB0FD8E5E4F902
:1016CB00FA227818EF2FFFEE33FEED33FDEC33FCEF
:1016DB00C933C910D7059BE99A4007EC9BFCE99AE3
:1016EB00F90FD8E0E4C9FAE4CCFB2275F010EF2F28
:1016FB00FFEE33FEED33FDCC33CCC833C810D70728
:10170B009BEC9AE899400AED9BFDEC9AFCE899F862
:0E171B000FD5F0DAE4CDFBE4CCFAE4C8F922F5
:10172900D083D082F8E4937012740193700DA3A34F
:1017390093F8740193F5828883E473740293686063
:06174900EFA3A3A380DF63
:06174F008A838982E47325
:10225E008B328A338934AB35AA36A93712153DFE37
:10226E00AB32AA33A93412153DFF6E702BEF600D01
:10227E00E53915397002153814453870037F002280
:10228E0074012534F534E43533F53374012537F50F
:10229E0037E43536F53680BEAB32AA33A934121583
:1022AE003DFDD3EE6480F8ED64809840037F0122FB
:0F22BE00AB35AA36A93712153DFFC3ED9FFF229E
:10175500E709F60870FA8046E709F20870FA803E54
:1017650088828C83E709F0A370FA807EE309F60886
:1017750070FA8076E309F20870FA806E88828C83AD
:10178500E309F0A370FA806289828A83E0A3F608F0
:1017950070FA805689828A83E0A3F20870FA804A3B
:1017A50080D280FA80C680D4806580F28031801036
:1017B50080A680EA809A80A880DA80E280CA80319B
:1017C50089828A83ECFAE493A3C8C582C8CCC58311
:1017D500CCF0A3C8C582C8CCC583CC70E9800D897F
:1017E500828A83E493A3F60870F9ECFAA9F0EDFB7D
:1017F5002289828A83ECFAE0A3C8C582C8CCC58356
:10180500CCF0A3C8C582C8CCC583CC70EA80DD897D
:10181500828A83E493A3F20870F980CE88F0ED24E0
:1018250002B4040050C4F582EB2402B4040050BA9B
:0918350023234582239017A573BB
:10296E00E4FFFE12153D600C0FEF70010E09E970C9
:05297E00F20A80EF22C7
:10183E00EF4E6012EF60010EEDBB010B89828A83C1
:10184E00F0A3DFFCDEFA2289F05007F709DFFCA9CE
:0C185E00F022BBFEFCF309DFFCA9F02225
:101F4600021B9CE493A3F8E493A34003F68001F2FA
:101F560008DFF48029E493A3F85407240CC8C3339C
:101F6600C4540F4420C8834004F456800146F6DF6B
:101F7600E4800B0102040810204080902339E47E9F
:101F8600019360BCA3FF543F30E509541FFEE49360
:101F9600A360010ECF54C025E060A840B8E493A327
:101FA600FAE493A3F8E493A3C8C582C8CAC583CA52
:101FB600F0A3C8C582C8CAC583CADFE9DEE780BE0A
:01239C000040
:00000001FF
