:10000000022AB88F448D45D291D290122270C291AB
:10001000122270C290122270E54425E04545FF028D
:020020001C12B0
:100023000215D2E4FB021000021A2C8F828E83E0A9
:10003300788AF6E4F6787DF68D828C83F07F012250
:10004300020046C0E0C0F0C083C082C0D075D008B3
:1000530020D902A136E5D9543F7002A108146049A2
:1000630024E1700281AC14603024FE601D146043EF
:1000730024F4604F242E6002A13420DE02A13478E0
:1000830097744026F6E6F5E4A134C21875D700E567
:10009300D654FC4402F5D6A13475D300E5D254FC02
:1000A3004402F5D2121F06A13420DE02A134121B32
:1000B3007BA13475DF0063DE40E5DE54FC4402F5CA
:1000C300DEA13485DB24E524640860028187900087
:1000D30006E078A0F6A3E0600276FF7524009000A6
:1000E30001E078A1F6900000E0546024E070026122
:1000F300E824E07002811924406002813F78A1E680
:10010300B40B00400261E690011025E07361CB61FE
:100113001D61E6615361E641F4212661E641FD611B
:10012300138142900003E024FE602014602B24F42A
:10013300700241CD24ED700241DB2421600241F2C3
:100143007579FF757A2E757BBE41AC7579FF757A2B
:100153002E757BD075244A8142900002E0146024FE
:1001630014602F14603A14700241B114700241BF3D
:1001730024056002813F7579FF757A2F757B1A75A7
:10018300240481427579FF757A2F757B1E752408C7
:1001930081427579FF757A2F757B2675242C8142F0
:1001A300903FFCE493C4540FFFC3940A5005EF241B
:1001B30030800A903FFCE493C4540F243790004CE2
:1001C300F0903FFCE493540FFFC3940A5005EF24CF
:1001D300308009903FFCE493540F243790004EF095
:1001E300903FFDE493C4540FFFC3940A5005EF24DA
:1001F30030800A903FFDE493C4540F24379000509D
:10020300F0903FFDE493540FFFC3940A5005EF248D
:10021300308009903FFDE493540F2437900052F04F
:10022300903FFEE493C4540FFFC3940A5005EF2498
:1002330030800A903FFEE493C4540F243790005457
:10024300F0903FFEE493540FFFC3940A5005EF244C
:10025300308009903FFEE493540F2437900056F00A
:10026300903FFFE493C4540FFFC3940A5005EF2457
:1002730030800A903FFFE493C4540F243790005812
:10028300F0903FFFE493540FFFC3940A5005EF240B
:10029300308009903FFFE493540F243790005AF0C5
:1002A300757901757A00757B4A75241281427579D7
:1002B300FF757A2F757B5275243081427579FF75EE
:1002C3007A2F757B8275241E81427579FF757A2F8B
:1002D300757BA07524288142900004E0B4020E755A
:1002E30079FF757A30757B7275243E8142813F8137
:1002F3003F900002E078A0F681427895E6900000F6
:10030300F078A0E6C3940150028142752401814232
:10031300900002E0FF7895F68142900000E0541FC0
:100323006402702A900004E024FE601B2481600DA7
:10033300147019E5D454BC4402F5D48142E5D25477
:10034300BC4402F5D2814253D4738142813F813F41
:10035300900000E0541FFD701D900003E0FE90002C
:1003630002E0FBEB64014E700B902ED79330E50255
:100373008142813F813FED6402704B900003E0FEB8
:10038300900002E0FDED4E703B900005E0FE900012
:1003930004E0FDEDFFEE702AEF24FE60112481607E
:1003A3001714701EE5D454BF4403F5D48142E5D439
:1003B300547F440CF5D48142E5D254BF4403F5D2B3
:1003C300807D807880768074757900757A00757B7E
:1003D3009E78A0E6FFC39402400575240280608FD7
:1003E30024805C8057900000E0541F6401705078B3
:1003F300A1E624E0604924FE6011047017757900BA
:10040300757A00757BA27524078034900002E0138F
:1004130092B4802B8026900000E0541F702178A1B5
:10042300E624E07015900004E0B407137579FF75B6
:100433007A2F757BC87524AA800580007524FFE593
:10044300246044F4604178A0E6D395244002A624B6
:1004530078A0E6FFC3944040047F4080008F247E51
:100463000078007C007D01AB79AA7AA97B1223C2B4
:10047300C378A0E69524F6E524257BF57BE4357A5D
:10048300F57A80037524FFE524B4FF0978A176FF8C
:1004930075DCCFA134E524D3944050058524DD8059
:1004A3000375DD0075DCC0A13478A1E624FB60424E
:1004B30024E56004241A704578A0E6FFC394404005
:1004C300047F4080008F247E0078007C007D01AB98
:1004D30079AA7AA97B1223C2C378A0E69524F6E50C
:1004E30024257BF57BE4357AF57A8524DD63DC40CE
:1004F300803FE5E3548078A046F5E3800375DD0093
:1005030075DC02802C85DB2478A1E66420701F3023
:10051300DE1CAFDBFE087C00FD7B017A0079001254
:1005230023C27B007A0079A212179775DD0063DC82
:1005330080C2D930D81475DC0275D21275D4127505
:10054300E300C2DAC2D9C218C2D830DA11C2DAE57E
:10055300DA30E20DE5A220E7FB438702800375D87A
:10056300FFD0D0D082D083D0F0D0E0328E4C8F4DEC
:100573008C4E8D4FE4787CF67893F6755001854E5A
:1005830051854F527403254FF54FE4354EF54EE434
:1005930008F6054DE54D7002054CF582854C8385C3
:1005A3004D82854C83E0FF7885F67402254DF54D29
:1005B300E4354CF54CEF7002C1FF054DE54DAE4CF3
:1005C3007002054C14F5828E83E0787FF6E620E115
:1005D30002C17930E03A7890E6FE08E6FF788EA60D
:1005E3000608A607787FE6FFE4FD120E547893EF22
:1005F300F6BF0213788E08E6161886067001164EAB
:1006030060057894E660DD7893E664016002C1FFDB
:100613007885E6167002C1FFE67008787FE630E061
:1006230002760E7890E6FE08E6FF788EA60608A608
:1006330007787FE6FF7D18120E547893EFF6BF021A
:1006430013788E08E6161886067001164E60057834
:1006530094E660DD7893E664016002C1FFAE4EAFBD
:100663004F7D18122C787404254FF54FE4354EF561
:100673004E787C06809A7885E61660517F18AC4CDC
:10068300AD4D122C5C7404254DF54DE4354CF54C01
:100693007890E6FE08E6FF788EA60608A607787F20
:1006A300E6FF7D18120E547893EFF6BF0213788E8F
:1006B30008E6161886067001164E60057894E66003
:1006C300DD7893E664017034787C0680A97890E63F
:1006D300FE08E6FF788EA60608A607E4FD7F0E1245
:1006E3000E547893EFF6BF0213788E08E616188639
:1006F300067001164E60057894E660DF787CE6AB01
:1007030050AA51A95212242EAB50AA51A9529000BB
:1007130001E41224407893E6900002122440AD4F86
:10072300AE05C3EE99FF228E488F498C4A8D4B0547
:100733004BE54BAE4A7002054A14F5828E83E4F012
:1007430078AB76010876010549E549AE48700205A4
:100753004814F5828E83E078AAF678AAE61670022A
:10076300E1EC0549E549AE487002054814F5828E6F
:1007730083E018F6E6FD543F78ADF67002764078D4
:10078300ADE62407FFE433FEEF7803CEC313CE13A5
:10079300D8F978ADF6EDD29578A9E6FFAA48A9492C
:1007A3007B01C0038B50854A51854B52D0031219EC
:1007B3007A78AAE67002D29578A9E630E71678AB84
:1007C3000678ADE6FF254BF54BE4354AF54A18EFBD
:1007D30026F6808678ADE6FF2549F549E43548F5E8
:1007E30048EF0478AB26F6E15D78ACE6FF22300AE9
:0C07F3000443EB482253EBB71222B32260
:100800008E258F26AA0EA90F7530018A318932757F
:1008100033007534047BFF7A2C79A5122BC6EF6068
:100820000281AC74042526F526E43525F5257530BE
:1008300001F5318526327533007534057BFF7A2C3E
:1008400079AA122BC6EF700DC2AF75A15575A1AA7A
:1008500043B11081A9753001852531852632753364
:10086000007534067BFF7A2C79B0122BC6EF70042A
:10087000D21981A97530018525318526327533005D
:100880007534077BFF7A2C79B7122BC6EF70028183
:10089000A9753001852531852632753300753403FD
:1008A0007BFF7A2C79BF122BC6EF6002216874039C
:1008B0002526F526E43525F525753001F531852603
:1008C000327533007534087BFF7A2C79C3122BC63E
:1008D000EF700DC20112228C7BFF7A2C79CC81A69D
:1008E0007530018525318526327533007534077BD7
:1008F000FF7A2D7902122BC6EF700DD20112228CD5
:100900007BFF7A2D790A81A67530018525318526F0
:10091000327533007534017BFF7A2D793B122BC67B
:10092000EF703D7B01200F067A03798080047A0303
:1009300079C08B278A2889298B2A8A2B892C122215
:10094000EF7BFF50067A2D795F80047A2D79678BD3
:10095000338A3489357530FF75312D75323D8159B3
:100960007BFF7A2D797081A675300185253185262A
:10097000327533007534047BFF7A2D798E122BC6C5
:10098000EF6002413F74042526F526E43525F52560
:10099000753001F5318526327533007534087BFFDB
:1009A0007A2C79C3122BC6EF700DC2011222777B0D
:1009B000FF7A2D799381A675300185253185263200
:1009C0007533007534077BFF7A2D7902122BC6EF41
:1009D000700DD2011222777BFF7A2D79CC81A6751A
:1009E00030018525318526327533007534017BFF52
:1009F0007A2D793B122BC6EF703D7B01200F067AD2
:100A000003798080047A0379C08B278A2889298B0F
:100A10002A8A2B892C1217FB7BFF50067A2D795FCF
:100A200080047A2D79678B338A3489357530FF7568
:100A3000312E75320081597BFF7A2E792581A6757A
:100A400030018525318526327533007534047BFFEE
:100A50007A2E7944122BC6EF6002817A7B01200F37
:100A6000067A03798080047A0379C08B278A2889E3
:100A7000298B2A8A2B892CA829AC28AD277BFF7AC1
:100A80002E794912270374042529F529E43528F520
:100A900028903FFCE493C4540FFFC3940A5005EF21
:100AA0002430800A903FFCE493C4540F2437AB27D2
:100AB000AA28A92912242E903FFCE493540FFFC3C7
:100AC000940A5005EF24308009903FFCE493540FC2
:100AD0002437AB27AA28A929900001122440903F6F
:100AE000FDE493C4540FFFC3940A5005EF243080F3
:100AF0000A903FFDE493C4540F2437AB27AA28A9DA
:100B000029900002122440903FFDE493540FFFC34C
:100B1000940A5005EF24308009903FFDE493540F70
:100B20002437AB27AA28A929900003122440903F1C
:100B3000FEE493C4540FFFC3940A5005EF243080A1
:100B40000A903FFEE493C4540F2437AB27AA28A988
:100B500029900004122440903FFEE493540FFFC3F9
:100B6000940A5005EF24308009903FFEE493540F1F
:100B70002437AB27AA28A929900005122440903FCA
:100B8000FFE493C4540FFFC3940A5005EF24308050
:100B90000A903FFFE493C4540F2437AB27AA28A937
:100BA00029900006122440903FFFE493540FFFC3A6
:100BB000940A5005EF24308009903FFFE493540FCE
:100BC0002437AB27AA28A9299000071224407408CB
:100BD0002529F529E43528F528A829FCAD277BFF30
:100BE0007A2E794E122703740A2529F529E435282F
:100BF000F5281222DDE47B107A0EF9F81225428FD7
:100C0000368E358D348C337530FF75312E753259F3
:100C1000AB27AA28A9291227B8EF2529F529EE35EF
:100C200028F528A829FCAD277BFF7A2E79611227A9
:100C300003740C2529F529E43528F5281222E6E469
:100C4000FB7A04F9F81225428F368E358D348C33B9
:100C50007530FF75312E75326EAB27AA28A929127F
:100C600027B8EF2529F529EE3528F528C3E529957C
:100C70002CF5D353D2FCB20F802F7530018525316E
:100C800085263275330075340D7BFF7A2E79761206
:100C90002BC6EF700B121EC27BFF7A2E7984800662
:100CA0007BFF7A2E799A121F467F01227F002278DD
:100CB0009DE6FF7897667002C1537E0074002FF99D
:100CC000EE3401754201F54389447896E62400F933
:100CD000EE3402754501F5468947789D744026F645
:100CE000AB42AA43A9441223E8FFAB450547E547B9
:100CF000AA467002054614F9EF12242EAB420544B1
:100D0000E544AA437002054314F91223E812260BA6
:100D10000D5F000D88010D97020DA6030E18040D3E
:100D200041050D50060E27080DB3090DC20A0DCD61
:100D3000100DDC110DEB120DFA130E091D00000E43
:100D400036AE43AF44AC46AD471200268F41C14793
:100D5000AE43AF44AC46AD47121D2A8F41C147ABED
:100D600042AA43A9441223E8FFAB45E5472401F911
:100D7000E43546FA121CA48F41AB45AA46A947E5C3
:100D80004112242E0541C147AE43AF44AC46AD47A6
:100D90001220F78F41C147AE43AF44AC46AD471276
:100DA00020008F41C147AB45AA46A947120FE18FEA
:100DB00041C147AE43AF44AC46AD47121FC08F415F
:100DC000C147AE46AF471221E48F41807AAE43AFB0
:100DD00044AC46AD47121AD68F41806BAE43AF4448
:100DE000AC46AD4712002E8F41805CAE43AF44ACA1
:100DF00046AD471220348F41804DAE43AF44AC46E0
:100E0000AD4712219E8F41803EAE43AF44AC46AD0C
:100E10004712072A8F41802FAE43AF44AC46AD47FF
:100E2000121E7A8F418020AE43AF44AC46AD4712CC
:100E3000214C8F418011AB45AA46A94790FFFF7412
:100E4000FF122440754101E541047899F6789674C3
:100E50004026F6228F538D54D295E553540FFFA2AE
:100E6000D0E433FD75FA68C43354E04481FCEF25C7
:100E7000E04CF5F930FBFD75FA08439220C29678F4
:100E800092E6FFEF6009C2970000D2971F80F4C27C
:100E900097A295E433D297FCC297A295E433D297F8
:100EA00025E04204C297A295E433F9D29725E025C4
:100EB000E04204EC64016002E17AE55330E168E469
:100EC000F555FDFE7F08C297A295E433F9D297E568
:100ED00055C313F555E9C433333354804255DFE627
:100EE000E555A2D0E4334205ED25E0FDE55460046C
:100EF0002EF8A6550EBE04CCEDA2D0920AC297A23F
:100F000095E433F9D297A20AE4336930E0027C0811
:100F10007892E6FFEF6009C2970000D2971F80F435
:100F20005392DFD296803F7892E6FFEF6009C29736
:100F30000000D2971F80F45392DFD296E4FD75FA39
:100F400068FEE5542EF8E6F5F9A2D0E4334205ED4B
:100F500025E0FD30FBFD0EBE04E875FA08EDA2D0D9
:100F60009295C297D297787EE6FF6057C295EF6060
:100F70006BC2970000D2971F80F4EC64026005EC0E
:100F8000640470417884E6600FE55330E10A7F2104
:100F9000C2970000D297DFF87892E6FFEF6009C2AF
:100FA000970000D2971F80F45392DFD2967884E6A0
:100FB0006011E55320E10CC2957F21C2970000D259
:100FC00097DFF880177892E62421FFEF6009C29737
:100FD0000000D2971F80F45392DFD296D295AF04CF
:100FE000228B488A49894AE4788DF61222B3AB48AD
:0E0FF000AA49A94AE412242E7F0122021FF50D
:101000008E488F498C4A8D4BAA06A907754C018AD8
:101010004D894EE4787CF67893F6754F01854A50F9
:10102000854B517402254BF54BE4354AF54AE408EB
:10103000F678A9F608F60549E5497002054805491C
:10104000E549AE487002054814F5828E83E0788544
:10105000F67885E6700261640549E549AE4870029C
:10106000054814F5828E83E0787FF6E6FF20E102E2
:10107000419A78A9E6607D7890E6FC08E6FD788ED6
:10108000A60408A605EF541164017026787FE6FFD8
:101090007D18120E547893EFF66402703A788E0839
:1010A000E6161886067001164E602C7894E660DC11
:1010B00080257D187F0E120E547893EFF6BF021331
:1010C000788E08E6161886067001164E600578942C
:1010D000E660DFE478A9F67893E664016002616473
:1010E000AE4AAF4B7D18122C787404254BF54BE4B7
:1010F000354AF54A787FE620E40241097F80AC4812
:10110000AD49122C5C74042549F549E43548F5488D
:10111000788BE6FE08E6FF18A60608A607787FE6A5
:1011200030E03A7890E6FE08E6FF788EA60608A63C
:1011300007787FE6FFE4FD120E547893EFF6BF02C6
:1011400013788E08E6161886067001164E6005782C
:1011500094E660DD7893E66401600261647890E66D
:10116000FE08E6FF788EA60608A607787FE6FF7DD4
:1011700018120E547893EFF6BF0213788E08E61615
:101180001886067001164E60057894E660DD789347
:10119000E66401703BE518788656788066701EE537
:1011A000197887567881667014E51A78885678829F
:1011B00066700AE51B7889567883666013788B0819
:1011C000E6161886067001164E60057894E6608D66
:1011D000E518788656788066701EE5197887567807
:1011E00081667014E51A788856788266700AE51B65
:1011F00078895678836660067893E64410F678938B
:10120000E664017002419461647890E6FE08E6FFAE
:10121000788EA60608A607787FE630E03778A9E63C
:101220007072787FE6FFE4FD120E547893EFF6BFFC
:101230000213788E08E6161886067001164E6005B1
:101240007894E660DD7893E664016002616478A9D1
:1012500076018040787FE6FF7D18120E547893EF78
:10126000F6BF0213788E08E6161886067001164E31
:1012700060057894E660DD7893E66401600261645D
:10128000AE4AAF4B7D18122C787404254BF54BE415
:10129000354AF54AE478AAF6615778A9E6605078AD
:1012A00090E6FE08E6FF788EA60608A6077D187F62
:1012B0000E120E547893EFF6BF0213788E08E616DE
:1012C0001886067001164E60057894E660DF789304
:1012D000E6640160026164AE4AAF4B7D18122C785F
:1012E0007404254BF54BE4354AF54AE478A9F67FBA
:1012F00018AC48AD49122C5C74042549F549E43515
:1013000048F548787FE630E5137886A61808A619D0
:1013100008A61A08A61B78937601803B7890E6FE13
:1013200008E6FF788EA60608A607787FE6FF7D18F8
:10133000120E547893EFF6BF0213788E08E6161853
:1013400086067001164E60057894E660DD7893E6B7
:10135000B4011178AA7601787C067894E670057855
:10136000851601517885E6602C0549E549AE48703F
:1013700002054814F5828E83E0787FF6E630E105B9
:1013800030E40D800074042549F549E43548F548FA
:1013900078851680CF7893E664016002812378A96E
:1013A000E6604C7890E6FE08E6FF788EA60608A672
:1013B000077D187F0E120E547893EFF6BF02137854
:1013C0008E08E6161886067001164E60057894E6BB
:1013D00060DF7893E66401704AAE4AAF4B7D181225
:1013E0002C787404254BF54BE4354AF54A80347863
:1013F000AAE6602F7890E6FE08E6FF788EA606083B
:10140000A607E4FD7F0E120E547893EFF6BF021389
:10141000788E08E6161886067001164E60057894D8
:10142000E660DF787CE6AB4FAA50A95112242E78F3
:1014300093E6AB4FAA50A951900001122440AD4B46
:10144000AE05C3EE99FF22E4FD7F50120003E4FFD6
:10145000121C127D017F50120003D20A1218008F55
:1014600041D20A1218008F42D20A1218008F43D2BA
:101470000A121800AB07E4F561F560F55FF55EE56B
:10148000614BF561E560F560E55FF55FE55EF55E92
:10149000AF61AE60AD5FAC5E78081225F88F618EEB
:1014A000608D5F8C5EE5614543F561E560F560E563
:1014B0005FF55FE55EF55EAF61AE60AD5FAC5E7837
:1014C000081225F88F618E608D5F8C5EE561454264
:1014D000F561E560F560E55FF55FE55EF55EAF61DE
:1014E000AE60AD5FAC5E78081225F88F618E608DBE
:1014F0005F8C5EE5614541F561E560F560E55FF5AE
:101500005FE55EF55ED20A1218008F41D20A12180A
:10151000008F42D20A1218008F43D20A121800AB71
:1015200007E4F569F568F567F566E5694FF569E57E
:1015300068F568E567F567E566F566AF69AE68ADBD
:1015400067FC78081225F88F698E688D678C66E5D0
:10155000694543F569E568F568E567F567E566F5AA
:1015600066AF69AE68AD67FC78081225F88F698EA2
:10157000688D678C66E5694542F569E568F568E55B
:1015800067F567E566F566AF69AE68AD67FC780834
:101590001225F88F698E688D678C66E5694541F57F
:1015A00069E568F568E567F567E566F566D20A12EC
:1015B0001800EF24FF9213C20A121800EF24FF92C2
:1015C000141222C4A214920A122232A213920A0204
:1015D00007F1C0E0C083C082C0D075D010309849F8
:1015E000300F23D20CAF75057574C02FF582E4342B
:1015F00003F583E599F0200B2E8575D3757500539F
:10160000D2FCC20F8021D20BAF75057574802FF507
:1016100082E43403F583E599F0200C0B8575D375CE
:10162000750053D2FCD20FC298309972301035E554
:1016300076C39578500EAF76057674402FF582E428
:1016400034038033757600300D16C210AF76057600
:1016500074002FF582E43403F583E0F59953D2F357
:10166000C20E8038E576C395775013AF7605767451
:10167000002FF582E43403F583E0F599801E75763A
:1016800000300E16D210AF76057674402FF582E446
:101690003403F583E0F59953D2F3C20DC299E5699D
:1016A0002401F569E43568F568E43567F567E435E4
:1016B00066F566E56524C8F56DE43564F56CE435DA
:1016C00063F56BE43562F56AD0D0D082D083D0E088
:1016D000321222A17F057E0012224B121D8412219C
:1016E000757B007A0079B87D017F201220677E002B
:1016F0007F087D007B017A00794012272075A15573
:1017000075A1AA75A981D2AF7895E660FB1222D4A3
:10171000120CAF1218C220181B7898E6FF78966654
:101720006012D2187899E6F5D78FE653D6FC7898F0
:10173000744026F630172978B706E6187001067847
:10174000B6E6FE08E6B40008EEB41804C2B2802D76
:10175000C3EE94304027E478B6F608F6D2B2801D86
:10176000AF65AE64AD63AC62AB6DAA6CA96BA86AE1
:10177000D31225D44003D38001C3B392B230199061
:10178000C2AFE4F5E275D1807F64FE12224BAA73EA
:10179000A974122631E110E4F528F527F526F52580
:1017A000900003122401F525900002122401F52671
:1017B000900001122401F5271223E8F528C2ACE4B9
:1017C0007F08FEFDFCAB28AA27A926A8251224B76E
:1017D000E42FFFEE3436FEED346EFDEC3401FCE414
:1017E0007B10FAF9F8122542AB28AA27A926A825CA
:0E17F000122542EFF404F58DD2AC22A2142291
:10180000E4F544A2AF33F545D291122270D290A2F2
:1018100091E4334244122270C290E54425E0F5443D
:10182000122270D290A291E4334244122270C290EC
:10183000E54425E0F544122270D290A291E43342AF
:1018400044122270C290E54425E0F544122270D281
:1018500090A291E4334244122270C290E54425E004
:10186000F544122270D290A291E4334244122270C5
:10187000C290E54425E0F544122270D290A291E492
:10188000334244122270C290E54425E0F54412220E
:1018900070D290A291E4334244122270C290E54487
:1018A00025E0F544122270D290A291E43342441212
:1018B0002270C290122270A20AB312226CC290AFA0
:1018C0004422AF5DAE5CAD5BAC5AAB65AA64A96364
:1018D000A862C31225D450022179E5652460F55D24
:1018E000E56434EAF55CE43563F55BE43562F55AAA
:1018F000B2B2E4FD7F50120003E4FF121C12AF618C
:10190000AE60AD5FAC5EE4121C12AF61AE60AD5F65
:10191000AC5E78081225E5E4121C12AF61AE60AD32
:101920005FAC5E78101225E5E4121C12AF61AE6068
:10193000AD5FAC5E78181225E5E4121C12AF69E4C5
:10194000121C12AF69AE68AD67AC6678081225E567
:10195000E4121C12AF69AE68AD67AC667810122550
:10196000E5E4121C12AF69AE68AD67AC6678181278
:1019700025E5E4121C121222C4228B4D8A4E894F97
:10198000EF543F78B0F670027640EF30E76178B000
:10199000E67002412BE478AEF678B1760878B1E6CD
:1019A000FF602718E66023C297A295E43318F6D2A9
:1019B0009718E6C313FEF608E6FDC43333335480AC
:1019C0004E18F678B116181680D378AEE6FEA80742
:1019D000088002C313D8FCFF78AEF6AB500552E581
:1019E00052AA517002055114F9EF12242E809F78EB
:1019F000B0E66037AB4D054FE54FAA4E7002054E7D
:101A000014F91223E878AEF678B1760878B1E6607A
:101A1000DE18E660DA78AEE6FF139295C297D297A9
:101A2000EFC313F678B116181680E122C0E0C0F0BB
:101A3000C083C082C0D075D000C000C001C002C049
:101A400003C004C005C006C00775CDF875CC30AF23
:101A500065AE64AD63AC62EF2401F565E43EF56408
:101A6000E43DF563E43CF562E5592401F559E435BC
:101A700058F558E43557F557E43556F556E47FE800
:101A80007E03FDFCAB59AA58A957A856C31225D40A
:101A90007027F559F558F557F556AF61AE60AD5F53
:101AA000AC5EEF2401F561E43EF560E43DF55FE4F2
:101AB0003CF55EB200A20092B5C2CFD007D006D0EE
:101AC00005D004D003D002D001D000D0D0D082D035
:101AD00083D0F0D0E0328C488D49AB07AA068B82C8
:101AE0008A83E078A9F6A3E008F68B828A83A3A311
:101AF000A3E0FE8B828A83A3A3E0FDEE08F6ED0847
:101B0000F6EB2404F582E43AF583E0700CEB24054F
:101B1000F582E43AF583E0600978ABE64480F608A4
:101B2000E6F678AAE6FF30E00B18E630E004D2973C
:101B30008002C297EF30E10C78A9E630E104D2953B
:101B40008002C29578AAE630E70E18E630E104D2AA
:101B5000948005121DDDC294A295E43325E0FFA216
:101B600097E4334F78A9F6209404E64480F678A9E8
:101B7000E6854982854883F07F0122C2ACE5D230F8
:101B8000E74785DB777E037F00120800EF60028164
:101B9000111217FB400C7BFF7A3079B0121F46D22E
:101BA0000D22200E18C210AF76057674002FF58234
:101BB000E43403F583E0F59953D2F38008E5D25479
:101BC000F34408F5D2D20D804685DB787E037F4052
:101BD000120800EF703B1217FB400F7BFF7A307941
:101BE000B0121F4653D2F3D20E22200D18D210AFDE
:101BF00076057674402FF582E43403F583E0F59999
:101C000053D2F38008E5D254F34408F5D2D20ED271
:101C1000AC228F46A2AFE433F548122262E5462596
:101C2000E0F546C290122270122262E54625E0F5E8
:101C300046C290122270122262E54625E0F546C2A5
:101C400090122270122262E54625E0F546C29012FB
:101C50002270122262E54625E0F546C290122270FB
:101C6000122262E54625E0F546C290122270122249
:101C700062E54625E0F546C290122270122262E526
:101C80004625E0F546C290122270D291D2901222DF
:101C9000707F002091027F018F47C290122270E571
:101CA0004724FF228B488A49894AE478A9F6EF2421
:101CB000FE60171460161460162414602B24F26062
:101CC0005514603424FE705D80028000E480247826
:101CD000A97606E6FF7E00A84AAC49AD487BFF7AAC
:101CE0003079E41223C2803DAB48AA49A94A740165
:101CF00012242E78A9F6802DAB48AA49A94A74402F
:101D000012242EAB48AA49A94A900001E4122440AB
:101D100078A97602800FAB48AA49A94A7404122414
:101D20002E78A9760178A9E6FF228E488F498C4A41
:101D30008D4B788DE6147011AD4BAC4AAF49AE486F
:101D400012056F78A9A6078017854B82854A83E420
:101D5000F0A3F0854B82854A83A3A3F078A976038C
:101D6000854982854883A3A3A3E030E102800C85E6
:101D7000498285488385498285488378A9E6F67833
:101D8000A9E6FF22C2EAE4F5E275D18053D1FB5304
:101D9000E2BF75ED0075EC0053EAF375DC0275EFF8
:101DA0000375EE0043EAC043EA1075D21275E501EF
:101DB00075E40075E70275E60043EB4853EBEE75FA
:101DC000D41275D61A43EA04F5E343E22943D1015C
:101DD00075D8FF75E107D2EAF5D3F5D522754A1E0D
:101DE000E4F54BF54CF54D7D4AFF120E54E4F54AEF
:101DF0007D4A7F08120E54754A12754D237D4A7F25
:101E000001120E54754A0C754BEDE4F54C754DE01E
:101E10007D4A7F05120E54754A07E4F54B754CFA5E
:101E2000754D057D4A7F0D120E547D4A7F0E020EC0
:101E3000548B4A8A4B894CE478AAF608F6AE071F01
:101E4000EE603678ABE67016AB4A054CE54CAA4B13
:101E50007002054B14F91223E818F608760878AAE0
:101E6000E6FE30E004D2958002C295C297EEC3131D
:101E700078AAF60816D29780C4228C488D49AB0701
:101E8000AA068B828A83E0787EF6A3A3E0FE8B828B
:101E90008A83A3E0FDEE7890F6ED08F6EB2404F5D6
:101EA00082E43AF583E0FE8B828A83A3A3A3E0FD5C
:101EB000EE788BF6ED08F6854982854883E4F07F5D
:101EC0000122E4FD7F50120003E4FF121C12E4FF24
:101ED000121C12E4FF121C12E4FF121C12E4FF1287
:101EE0001C12E4FF121C12E4FF121C12E4FF121C6D
:101EF00012E4FF121C127F01121C127F01121C122D
:101F00001222C4021447C2ACE5D230E61C300C0DDC
:101F10008575D3E4F57553D2FCC20F8008E5D25421
:101F2000FC4402F5D2C20B801A300B0D8575D3E448
:101F3000F57553D2FCD20F8008E5D254FC4402F56B
:101F4000D2C20CD2AC228B2D8A2E892F200F0B757A
:101F500030017531037532808009753001753103A8
:101F60007532C0A832AC31AD30AB2DAA2EA92F12DC
:101F70002703AB2DAA2EA92F122C908FD353D2FC5E
:101F8000B20F228C4A8D4B8F828E83A3E0F5188F7F
:101F9000828E83A3A3E0F5198F828E83A3A3A3E08F
:101FA000F51AEF2404F582E43EF583E0F51B7D1875
:101FB000E4FF120E54854B82854A83E4F07F0122B0
:101FC0008C488D49AB07AA068B828A83A3E0FE8BDF
:101FD000828A83E0FDEE78A9F6ED08F678A908E696
:101FE00016187001161486064E70F18549828548D0
:101FF00083F07F0122439203439303D291D2902234
:102000008C488D498F828E83E0FF78A97004760119
:102010008002A60778A9E6147009788D760112214E
:10202000228004E478A9F678A9E685498285488368
:10203000F07F01228C488D49AB07AA060BEB70019B
:102040000A14F5828E83E078A9F6E6700276FF78AE
:10205000A9E6FFAD03A9057B01121E3185498285E2
:102060004883E4F07F01228B418A4289437585C011
:10207000EF25E0FFE4FEEEC39D501CEE25E02FF5BA
:102080008475868EAB41AA42A9438E82758300E592
:102090008E1224400E80DFAF0622C3E49DFDE49C37
:1020A000FCEF7009EDF58AAF04EFF58C22BF010754
:1020B000EDF58BECF58D22BF020EAF05EDF5CC8F63
:1020C000CAAF04ECF5CD8FCB22EF7009E58954F04F
:1020D0004DF589801FBF010EEDC454F0FFE5895412
:1020E0000F4FF589800EBF0208C2CDC2CCC2C88096
:1020F000037FFF227F00228C488D498F828E83E0F0
:10210000146003047007A3E0139217800A854982C4
:1021100085488374FF8007854982854883E4F07F82
:10212000012253927F439380D2975392DF439320AF
:10213000D295D2945392EF439310D2965396BF43C5
:10214000974075FC0875FA0875FB0C228C488D4980
:10215000788DE614700DAD49AC48121F8378A9A69E
:1021600007800D85498285488374FFF078A9760140
:1021700078A9E6FF22439603439703C2CDC2CC431E
:102180008780E589540F4420F58943C9A0758DF3F4
:10219000D28E759850A2BCE43342B8D2AC228F8262
:1021A0008E83E078A9F6E6FF5403047892F6EF7F79
:1021B0000030E2027F017884A6078D828C83E4F0F0
:1021C0007F01228F2D8D2EE4FD7F5012000350F7EA
:1021D000AF2D121C12AF2E121C121222C47F647E6D
:1021E000000221FE8E488F49121DDD8549828548F7
:1021F00083A3E4F0854982854883F07F0222EF4E75
:10220000601505A105A105A105A105A105A105A1CF
:10221000EF1F70EA1E80E72253C9BFC2C97D017F4C
:10222000021220C97D307CF87F0112209AD2CAD2D6
:10223000AD22300A0B439603439703D2ACD28E22D1
:102240005396FC5397FCC2ACC28E22AD07AC06ED90
:102250004C600E7FE87E031221FEED1D70F11C80A4
:10226000EE22E546C4131313540124FF9291D29039
:102270007F0A7E000221FEA2019214A201920A129C
:102280002232A201E433FD7F090221C3A20192138D
:10229000A201920A1207F1A201E433FD7F08022194
:1022A000C375A15575A1AAE5B954F84406F5B9E47A
:1022B000F5A122D2945392DF5393DF53927F53932D
:1022C0007FC29622C291122270D2901222701222E4
:1022D00070D29122120FFB122218021447AF61AE86
:1022E00060AD5FAC5E22AF69AE68AD67AC6622A23E
:1022F0001322E709F608DFFA8046E709F208DFFA59
:10230000803E88828C83E709F0A3DFFA8032E309FC
:10231000F608DFFA8078E309F208DFFA8070888235
:102320008C83E309F0A3DFFA806489828A83E0A3C7
:10233000F608DFFA805889828A83E0A3F208DFFA80
:10234000804C80D280FA80C680D4806980F280334D
:10235000801080A680EA809A80A880DA80E280CA15
:10236000803389828A83ECFAE493A3C8C582C8CCFF
:10237000C583CCF0A3C8C582C8CCC583CCDFE9DE59
:10238000E7800D89828A83E493A3F608DFF9ECFAEB
:10239000A9F0EDFB2289828A83ECFAE0A3C8C5820A
:1023A000C8CCC583CCF0A3C8C582C8CCC583CCDF5C
:1023B000EADEE880DB89828A83E493A3F208DFF90E
:1023C00080CC88F0EF60010E4E60C388F0ED2402EF
:1023D000B4040050B9F582EB2402B4040050AF23DA
:1023E0002345822390234273BB010689828A83E0BE
:1023F000225002E722BBFE02E32289828A83E49311
:1024000022BB010CE58229F582E5833AF583E022BF
:102410005006E92582F8E622BBFE06E92582F8E2AD
:1024200022E58229F582E5833AF583E49322BB0114
:102430000689828A83F0225002F722BBFE01F32232
:10244000F8BB010DE58229F582E5833AF583E8F0D2
:10245000225006E92582C8F622BBFE05E92582C87E
:10246000F222BC000BBE0029EF8DF084FFADF022FC
:10247000E4CCF875F008EF2FFFEE33FEEC33FCEE02
:102480009DEC984005FCEE9DFE0FD5F0E9E4CEFDF5
:1024900022EDF8F5F0EE8420D21CFEADF075F008C8
:1024A000EF2FFFED33FD4007985006D5F0F222C321
:1024B00098FD0FD5F0EA22E88FF0A4CC8BF0A42C85
:1024C000FCE98EF0A42CFC8AF0EDA42CFCEA8EF042
:1024D000A4CDA8F08BF0A42DCC3825F0FDE98FF029
:1024E000A42CCD35F0FCEB8EF0A4FEA9F0EB8FF020
:1024F000A4CFC5F02ECD39FEE43CFCEAA42DCE35A8
:10250000F0FDE43CFC2275F008758200EF2FFFEE31
:1025100033FECD33CDCC33CCC58233C5829BED9A0F
:10252000EC99E58298400CF582EE9BFEED9AFDEC6D
:1025300099FC0FD5F0D6E4CEFBE4CDFAE4CCF9A8B3
:102540008222B800C1B90059BA002DEC8BF084CFBB
:10255000CECDFCE5F0CBF97818EF2FFFEE33FEED92
:1025600033FDEC33FCEB33FB10D703994004EB99BC
:10257000FB0FD8E5E4F9FA227818EF2FFFEE33FECF
:10258000ED33FDEC33FCC933C910D7059BE99A4004
:1025900007EC9BFCE99AF90FD8E0E4C9FAE4CCFB1C
:1025A0002275F010EF2FFFEE33FEED33FDCC33CC70
:1025B000C833C810D7079BEC9AE899400AED9BFDF9
:1025C000EC9AFCE899F80FD5F0DAE4CDFBE4CCFA0C
:1025D000E4C8F922EB9FF5F0EA9E42F0E99D42F053
:1025E000E89C45F022E8600FECC313FCED13FDEE10
:1025F00013FEEF13FFD8F122E8600FEFC333FFEEB5
:1026000033FEED33FDEC33FCD8F122D083D082F8D9
:10261000E4937012740193700DA3A393F874019363
:10262000F5828883E4737402936860EFA3A3A380A8
:10263000DF8A838982E473E709F60870FA8046E747
:1026400009F20870FA803E88828C83E709F0A37053
:10265000FA807EE309F60870FA8076E309F20870E2
:10266000FA806E88828C83E309F0A370FA80628915
:10267000828A83E0A3F60870FA805689828A83E012
:10268000A3F20870FA804A80D280FA80C680D48093
:102690006580F28031801080A680EA809A80A880D0
:1026A000DA80E280CA803189828A83ECFAE493A3DB
:1026B000C8C582C8CCC583CCF0A3C8C582C8CCC568
:1026C00083CC70E9800D89828A83E493A3F6087035
:1026D000F9ECFAA9F0EDFB2289828A83ECFAE0A3F7
:1026E000C8C582C8CCC583CCF0A3C8C582C8CCC538
:1026F00083CC70EA80DD89828A83E493A3F2087038
:10270000F980CE88F0ED2402B4040050C4F582EBC9
:102710002402B4040050BA232345822390268773F1
:10272000EF4E6012EF60010EEDBB010B89828A83D0
:10273000F0A3DFFCDEFA2289F05007F709DFFCA9DD
:10274000F022BBFEFCF309DFFCA9F022FAE6FB084D
:1027500008E6F925F0F618E6CA3AF622E53C2430F8
:10276000F8E6053C22782D3008027830E475F00157
:1027700012274C0223E82001EB7F2ED2018018EFB4
:10278000540F2490D43440D4FF30050BEF24BFB451
:102790001A0050032461FFE53D6002153D0540E548
:1027A000407002053F30080D782DE475F0011227C6
:1027B0004CEF02242E022C357403D2088003E4C2AD
:1027C00008F53C8B2D8A2E892FE4F53DF53FF54029
:1027D000E53D60077F2012279780F5753EFFC20216
:1027E000C201C203C204C206C207C209122765FFA2
:1027F000700D3008057F001227A8AF40AE3F22B40D
:10280000255FC2D5C205122765FF24D0B40A005047
:102810001A75F00A783D30D50508B6FF0106C6A442
:1028200026F620D5047002D20480D924CFB41A0031
:10283000EF5004C2E5D2050229A8D20280C6D20117
:1028400080C0D20380BCD2D580BAD20680B47F20AB
:102850001227972003077401B53D0040F112275C51
:10286000FF1227970227D0D209D207809512275C42
:10287000FB12275CFA12275CF94A4B700679797AC9
:102880002A7BFF20032EE53D602A7E008E82758321
:102890000012240160060EEE653E70F0C2D5EBC05A
:1028A000E0EAC0E0E9C0E0EE1229EFD0E0F9D0E0C4
:1028B000FAD0E0FB1223E8FF60AAEBC0E0EAC0E038
:1028C000E9C0E0122797D0E02401F9D0E03400FA03
:1028D000D0E0FBE53E0460DCD53ED980877BFF7A03
:1028E0002979EBD203809C791080027908C207C253
:1028F000098008D2D5790A8004790AC2D5E53E0458
:102900007002F53EE4FAFDFEFF12275CFC7B082016
:10291000021312275CFD7B1030010A12275CFE12A5
:10292000275CFF7B20EC3382D592D55013C3E43073
:1029300001069FFFE49EFEE42002039DFDE49CFC53
:10294000E4CBF8C202EC700CCFCECDCCE824F8F882
:1029500070F38017C3EF33FFEE33FEED33FDEC333E
:10296000FCEB33FB994002FB0FD8E9EB300205F892
:10297000D0E0C448B202C0E00AEC4D4E4F78207B54
:102980000070C2EAB53E0040BCC0E01229F1D0F0B0
:10299000D0E0200204C4C0E0C4B202C0F01227801C
:1029A000D0F0D5F0EB0227D012260B286D5328E784
:1029B00058283E4C283A4228EB4F28F34428F34944
:1029C00028534328F95528DD4628DD4528DD472AC8
:1029D000995028422D28462E28692B284A232867FB
:1029E000202A822A280248000028613F3F3F0079C0
:1029F0000AA2D5200414300609B910020404B9084B
:102A00000104A2D52007025001042003689203B5F7
:102A10003D005034C0E07F203004197F30A20372A3
:102A2000077206500F122A48C203C207C206C20923
:102A30007F30800F300603E9C0E01227973006038D
:102A4000D0E0F9D0E0B53DCC3006177F30B9100C9E
:102A50001227977F583005077F788003B908031243
:102A600027973003057F2D0227977F202009F87FC5
:102A70002B2007F322920380CF286E756C6C2900FF
:102A8000D20212275C3002F8C202783D30D501082C
:102A9000F60228022D5043495812275C2403B4053E
:102AA000004001E4902A9493122788743A122788F0
:102AB000D204753D040228E7787FE4F6D8FD7581DD
:102AC000B8022AFF0216D1E493A3F8E493A34003CB
:102AD000F68001F208DFF48029E493A3F854072478
:102AE0000CC8C333C4540F4420C8834004F4568038
:102AF0000146F6DFE4800B010204081020408090BC
:102B00002B44E47E019360BCA3FF543F30E509549D
:102B10001FFEE493A360010ECF54C025E060A840DF
:102B2000B8E493A3FAE493A3F8E493A3C8C582C8D6
:102B3000CAC583CAF0A3C8C582C8CAC583CADFE9AB
:102B4000DEE780BEC119019400C11201B8FFC111B6
:102B5000046200000000045600000000045A000057
:102B6000EA60C115C116C10D017700C10E017800E0
:102B7000C10BC10C017600017500C110C10FC11756
:102B8000019700019D00019600019800C118029E66
:102B9000000007A200E1000000000852004A1203F2
:102BA00030003000300030003000300030003000A5
:102BB000037200380002B60000046A000003E80453
:102BC0006E5A5A5A5A008B2D8A2E892FAB30AA3151
:102BD000A9321223E8FEAB2DAA2EA92F1223E8FF5B
:102BE0006E702BEF600DE53415347002153314450B
:102BF0003370037F00227401252FF52FE4352EF565
:102C00002E74012532F532E43531F53180BEAB2D1D
:102C1000AA2EA92F1223E8FDD3EE6480F8ED64807C
:102C20009840037F0122AB30AA31A9321223E8FF7A
:102C3000C3ED9FFF22EFB40A07740D122C40740AF3
:102C4000309811A899B8130CC2983098FDA899C271
:102C500098B811F63099FDC299F59922EFF975836C
:102C6000018D82E0F7090582E0F7090582E0F709A6
:102C70000582E0F70905822205A27583028F82157D
:102C8000A2EDF9E7A509E7A509E7A509E7A5092246
:102C9000E4FFFE1223E8600C0FEF70010E09E970EB
:102CA000F20A80EF224442472B005245534554001C
:102CB00055504441544500434849505F49440053EE
:102CC0005744003D44495341424C45004F6E2D62EC
:102CD0006F6172642053574420646562756767654D
:102CE000722068617320646973636F6E6E656374CC
:102CF00065642066726F6D207461726765742E0D55
:102D00000A003D454E41424C45004F6E2D626F61B9
:102D1000726420535744206465627567676572204A
:102D200068617320636F6E6E656374656420746F91
:102D3000207461726765742E0D0A003F004F6E2D7E
:102D4000626F6172642053574420646562756767DF
:102D500065722073746174653A2025730D0A00450D
:102D60004E41424C45440044495341424C45440085
:102D70004442472B5357443C3D454E41424C457CD1
:102D80003D44495341424C457C3F3E0D0A0055416C
:102D90005254004F6E2D626F61726420554152543F
:102DA0002D55534220627269646765206861732003
:102DB000646973636F6E6E65637465642066726FB9
:102DC0006D207461726765742E0D0A004F6E2D625E
:102DD0006F61726420554152542D555342206272E6
:102DE000696467652068617320636F6E6E656374E4
:102DF000656420746F207461726765742E0D0A001B
:102E00004F6E2D626F61726420554152542D55539F
:102E100042206272696467652073746174653A2048
:102E200025730D0A004442472B554152543C3D4501
:102E30004E41424C457C3D44495341424C457C3FC8
:102E40003E0D0A00494E464F00534E3A20000A50AC
:102E50006F7765724F6E3A2000256C75204872734B
:102E6000000A554152545472616E733A2000256C29
:102E700075204B420A00434C45415253544154493A
:102E80004E464F0053544154494E464F206861739B
:102E900020636C6561722E0D0A004442472B3C5240
:102EA000455345547C5550444154457C5357447CCC
:102EB000554152547C494E464F3E2E0D0A00120198
:102EC0001002EF020140280D04020001010203017B
:102ED00009024A0002010080FA0904000002FF0012
:102EE00000040705020240000007058302400000BD
:102EF0000904010002020201050524001001052455
:102F00000100010424020205240600010705010254
:102F10004000000705810240000004030904080383
:102F2000410052004D002C034400410050004C0071
:102F300069006E006B00200055004E004400450003
:102F4000460049004E004500200054004500430063
:102F50004800300343004D005300490053002D004A
:102F6000440041005000200055004E004400450040
:102F7000460049004E004500200054004500430033
:102F800048001E034400410050004C0069006E00E0
:102F90006B002D004300440043004500780074009E
:102FA000050F280002071002000000001C10050099
:102FB000DF60DDD88945C74C9CD2659D9E648A9FA1
:102FC00000000306AA0020000A000000000003061B
:102FD000AA00080002000000A000140003005749E6
:102FE0004E55534200000000000000000000840025
:102FF000040007002A0044006500760069006300B1
:10300000650049006E007400650072006600610092
:10301000630065004700550049004400730000004C
:1030200050007B0043004400420033004200350062
:10303000410044002D0032003900330042002D00D1
:1030400034003600360033002D00410041003300CB
:1030500036002D00310041004100450034003600AB
:103060003400360033003700370036007D000000A2
:10307000000005010906A101050719E029E715006F
:103080002501750195088102950175088101950357
:103090007501050819012903910295057501910132
:1030A0009506750826FF000507190029918100C0C3
:1030B0005479706520224442472B554152543D4576
:1030C0004E41424C452220746F20656E61626C65F2
:1030D00020554152542D55534220627269646765F0
:0A30E0002E0D0A00322E302E3000B3
:00000001FF
